:100000000C9434000C9449000C9449000C94490061
:100010000C9449000C9449000C9449000C9449003C
:100020000C9449000C9449000C9449000C9449002C
:100030000C9449000C9449000C9449000C9449001C
:100040000C9449000C9449000C9449000C9449000C
:100050000C9449000C9449000C9449000C944900FC
:100060000C9449000C94490011241FBECFEFD8E036
:10007000DEBFCDBF11E0A0E0B1E0ECE2F2E002C0F3
:1000800005900D92A631B107D9F70E94FD000C949E
:1000900014010C94000095B19D7F95B995E09A9557
:1000A000F1F700008295807F95B1926095B995E057
:1000B0009A95F1F700009BB19F709BB99BB1892B7A
:1000C0008BB985B18D7F85B98FE891E00197F1F704
:1000D00000C000000895CF93C82F611104C085B1FE
:1000E0008E7F85B903C085B1816085B98C2F8295DB
:1000F0008F700E944B008C2F0E944B00CF9108956F
:1001000061E00E946B00089590E4699F800D1124C6
:1001100060E080680E946B0008952FEF80E792E016
:10012000215080409040E1F700C0000085B18E7FF3
:1001300085B985B18D7F85B983E00E944B008FE43E
:1001400096E40197F1F700C0000083E00E944B00A5
:100150008FE496E40197F1F700C0000083E00E946D
:100160004B0087E592E00197F1F700C0000082E0C4
:100170000E944B0087E592E00197F1F700C0000074
:1001800060E088E20E946B008FE496E40197F1F74B
:1001900000C0000060E08CE00E946B0087E592E008
:1001A0000197F1F700C0000060E086E00E946B005C
:1001B00087E592E00197F1F700C0000060E081E080
:1001C0000E946B0008950F931F93CF938C01C0E0A2
:1001D00003C00E948000CF5FF801EC0FF11D808109
:1001E0008111F7CFCF911F910F9108951BB88FE028
:1001F0008AB915B883E084B908950E94F6000E9478
:100200008D0060E070E080E00E94840080E091E07A
:100210000E94E30061E070E081E00E9484008DE0D4
:0C02200091E00E94E300FFCFF894FFCFB4
:10022C0048656C6C6F20576F726C6421005374724C
:06023C00696E672032002C
:00000001FF
