S012000041746D656761333238502E73726563D6
S11300000C9434000C943E000C943E000C943E007E
S11300100C943E000C943E000C943E000C943E0064
S11300200C943E000C943E000C943E000C943E0054
S11300300C943E000C943E000C943E000C943E0044
S11300400C943E000C943E000C943E000C943E0034
S11300500C943E000C943E000C943E000C943E0024
S11300600C943E000C943E0011241FBECFEFD8E048
S1130070DEBFCDBF0E947F010C94F1010C940000FF
S11300808230C9F1833009F469C0813009F098C025
S113009041110DC034B181E090E0062E02C0880FFA
S11300A0991F0A94E2F78095832384B90BC034B175
S11300B081E090E0062E02C0880F991F0A94E2F7AF
S11300C0832B84B9222359F025B181E090E002C04A
S11300D0880F991F6A95E2F7822B85B9089525B197
S11300E081E090E002C0880F991F6A95E2F780953D
S11300F0822385B9089541110DC037B181E090E0A4
S1130100062E02C0880F991F0A94E2F78095832374
S113011087B90BC037B181E090E0062E02C0880F8A
S1130120991F0A94E2F7832B87B9222359F028B147
S113013081E090E002C0880F991F6A95E2F7822B54
S113014088B9089528B181E090E002C0880F991F12
S11301506A95E2F78095822388B9089541110DC00C
S11301603AB181E090E0062E02C0880F991F0A94EC
S1130170E2F7809583238AB90BC03AB181E090E01D
S1130180062E02C0880F991F0A94E2F7832B8AB9BE
S1130190222359F02BB181E090E002C0880F991F0F
S11301A06A95E2F7822B8BB908952BB181E090E038
S11301B002C0880F991F6A95E2F7809582238BB954
S11301C00895823071F08330B1F08130F1F423B1BD
S11301D081E090E002C0880F991F6A95E2F78223BC
S11301E0089526B181E090E002C0880F991F6A95B6
S11301F0E2F78223089529B181E090E002C0880FDC
S1130200991F6A95E2F7822308950895823079F060
S11302108330C1F0813001F523B181E090E0062EF6
S113022002C0880F991F0A94E2F7822B83B926B182
S113023081E090E0062E02C0880F991F0A94E2F72D
S1130240822B86B929B181E090E002C0880F991F02
S11302506A95E2F7822B89B908958230F1F08330F0
S1130260A9F1813009F04AC0442351F025B181E05D
S113027090E002C0880F991F6A95E2F7822B0BC0A9
S113028095B121E030E002C0220F331F6A95E2F7F6
S1130290822F8095892385B90895442351F028B18C
S11302A081E090E002C0880F991F6A95E2F7822BE3
S11302B00BC098B121E030E002C0220F331F6A95D1
S11302C0E2F7822F8095892388B90895442351F059
S11302D02BB181E090E002C0880F991F6A95E2F784
S11302E0822B0BC09BB121E030E002C0220F331FF0
S11302F06A95E2F7822F809589238BB90895C0E02F
S1130300D0E007C021E041E06C2F83E00E94400070
S11303102196C830D105B4F321E040E060E081E0EB
S11303200E94400021E040E061E081E00E94400042
S113033021E040E062E081E00E94400021E040E0F2
S113034063E081E00E94400020E040E064E081E05E
S11303500E94400020E040E065E081E00E9440000F
S113036020E040E066E081E00E94400020E040E0C0
S113037067E081E00E944000C0E0D0E016C06C2F2E
S113038083E00E9406012FEF89E698E12150804026
S11303909040E1F700C000000F5F1F4F02C000E073
S11303A010E0023011055CF32196C830D105BCF38E
S11303B0C0E0D0E012C06C2F81E00E94E1008823ED
S11303C031F041E06C2F83E00E942D0105C040E034
S11303D06C2F83E00E942D012196C830D1055CF377
S10903E0E7CFF894FFCF03
S9030000FC
