S010000055534152545F52582E737265637C
S11300000C9434000C9446000C9446000C94460066
S11300100C9446000C9446000C9446000C94460044
S11300200C9446000C9446000C9446000C94460034
S11300300C9446000C9446000C9446000C94460024
S11300400C9446000C9446000C9478000C944600E2
S11300500C9446000C9446000C9446000C94460004
S11300600C9446000C94460011241FBECFEFD8E038
S1130070DEBFCDBF21E0A0E0B1E001C01D92A13000
S1130080B207E1F70E9448000C94AC000C94000005
S113009084B1806284B987E690E00E9496007894E7
S11300A08FE40E94A5008BE60E94A50081E20E94D5
S11300B0A5008DE00E94A5008AE00E94A5002FEF14
S11300C089E698E1215080409040E1F700C00000AB
S11300D085B1806285B92FEF89E698E1215080408F
S11300E09040E1F700C0000085B18F7D85B9FFCF56
S11300F01F920F920FB60F9211248F9385B18062D5
S113010085B98091C60080930001809100018133FC
S113011021F485B1806285B903C085B18F7D85B92D
S11301208F910F900FBE0F901F9018959093C5005C
S11301308093C400E1ECF0E0808188698083E2EC84
S1130140F0E080818660808308959091C00095FFDF
S10F0150FCCF8093C6000895F894FFCF04
S9030000FC
