:100000000C945C000C9479000C9479000C947900A9
:100010000C9479000C9479000C9479000C9479007C
:100020000C9479000C9479000C9479000C9479006C
:100030000C9479000C9479000C9479000C9479005C
:100040000C94EC000C9479000C9479000C947900D9
:100050000C9479000C9479000C9479000C9479003C
:100060000C9479000C947900000000002400270013
:100070002A0000000000250028002B0004040404CE
:100080000404040402020202020203030303030342
:10009000010204081020408001020408102001021F
:1000A00004081020000000080002010000030407FB
:1000B000000000000000000011241FBECFEFD8E0B8
:1000C000DEBFCDBF11E0A0E0B1E0E4EFF3E002C09D
:1000D00005900D92A431B107D9F721E0A4E1B1E078
:1000E00001C01D92AD31B207E1F70E9436010C94B8
:1000F000F8010C94000090E0FC01EC55FF4F2491B6
:10010000FC01E057FF4F3491FC01E458FF4FE491AC
:10011000EE23C9F0222339F0233001F1A8F4213075
:1001200019F1223029F1F0E0EE0FFF1FEE58FF4FDA
:10013000A591B4918FB7F894EC91611126C03095D8
:100140003E233C938FBF08952730A9F02830C9F093
:10015000243049F7809180008F7D03C0809180001A
:100160008F7780938000DFCF84B58F7784BDDBCF1E
:1001700084B58F7DFBCF8091B0008F778093B000E6
:10018000D2CF8091B0008F7DF9CF3E2BDACF3FB731
:10019000F8948091190190911A01A0911B01B091DE
:1001A0001C0126B5A89B05C02F3F19F00196A11D83
:1001B000B11D3FBFBA2FA92F982F8827BC01CD01B1
:1001C000620F711D811D911D42E0660F771F881F10
:1001D000991F4A95D1F708951F920F920FB60F926B
:1001E00011242F933F938F939F93AF93BF9380914D
:1001F000150190911601A0911701B091180130914D
:10020000140123E0230F2D3758F50196A11DB11DD0
:10021000209314018093150190931601A093170168
:10022000B09318018091190190911A01A0911B01BE
:10023000B0911C010196A11DB11D809319019093ED
:100240001A01A0931B01B0931C01BF91AF919F9124
:100250008F913F912F910F900FBE0F901F90189587
:1002600026E8230F0296A11DB11DD2CF789484B544
:10027000826084BD84B5816084BD85B5826085BDA2
:1002800085B5816085BD80916E00816080936E0030
:100290001092810080918100826080938100809122
:1002A00081008160809381008091800081608093D3
:1002B00080008091B10084608093B1008091B00093
:1002C00081608093B00080917A00846080937A008E
:1002D00080917A00826080937A0080917A008160B8
:1002E00080937A0080917A00806880937A001092DF
:1002F000C100A0E0B1E08D919D919927FC01E057EC
:10030000FF4F249184589F4FFC018491882399F0DA
:1003100090E0880F991FFC01E859FF4FC591D491D7
:10032000FC01EE58FF4F859194918FB7F894E881C6
:10033000E22BE8838FBFF1E0A431BF07E1F630E0A4
:10034000C32E30E0D32E20E0E22E21E0F22ED0E0CA
:10035000C0E0F7018081F2E0EF0EF11C61E00E9445
:100360007B0090E0A92E91E0B92E10E000E0C017CC
:10037000D10729F060E0F50180810E947B000F5FCA
:100380001F4FF2E0AF0EB11C0A30110581F70E9439
:10039000C7004B015C0184EF482E55245394612C17
:1003A000712C0E94C700681979098A099B09683E67
:1003B000734081059105A8F321E0421A51086108B4
:1003C000710888EE880E83E0981EA11CB11C4114B0
:1003D00051046104710429F72196CA30D10509F04E
:1003E000B8CFC114D10409F4AECF0E940000ABCF46
:0403F000F894FFCFAF
:1003F40000000100020003000400050006000700DD
:0404040008000900E3
:00000001FF
