:1000000012C024C023C022C021C020C01FC01EC0F7
:100010001DC01CC01BC01AC019C018C017C016C014
:1000200015C014C013C011241FBECFE5D4E0DEBF3D
:10003000CDBF12E0A0E6B0E0EAE7F2E002C0059032
:100040000D92A438B107D9F7DAD015C1D9CF939A58
:1000500095E89A95F1F7000092B39F7092BB92B326
:100060008295807F892B82BB939885E88A95F1F7EA
:1000700000000895CF93C82F611102C0929801C06B
:10008000929A8C2F82958F70E2DF8C2FE0DFCF91D8
:10009000089561E0EFDF08956130710561F038F097
:1000A0006230710569F06330710579F0089560E0A0
:1000B0008068E0DF0895805C60E08068DBDF0895A1
:1000C0008C5E60E08068D6DF08958C5A60E08068BE
:1000D000D1DF08958FE295E70197F1F700C00000A6
:1000E00083E0B5DF8FE39FE10197F1F700C00000E7
:1000F00083E0ADDF87EC90E00197F1F700C00000EE
:1001000083E0A5DF8FEC97E00197F1F700C00000D6
:1001100082E09DDF8FEC97E00197F1F700C00000CF
:1001200060E088E2A7DF8FEC97E00197F1F700C06D
:10013000000060E08CE09EDF8FEC97E00197F1F724
:1001400000C0000060E086E095DF8FEC97E001974B
:10015000F1F700C00000089560E081E08BDF87EBDD
:100160009BE00197F1F700C000000895CF93DF9363
:10017000EC018881882329F021968BDF89918111F8
:10018000FCCFDF91CF910895FF920F931F93CF93F0
:10019000DF938C0160E080E86DDFE8010F2EF4E171
:1001A000FF2EF02D899175DFFA94E1F7E801A8960A
:1001B0000F2EF4E1FF2EF02D89916BDFFA94E1F719
:1001C00060E080EC57DFE80164960F2EF4E1FF2E2B
:1001D000F02D89915EDFFA94E1F7E801EC961CE3DB
:1001E000899157DF1F5F1035D9F7DF91CF911F91AC
:1001F0000F91FF90089512BA8FEF81BB0895FBDF36
:1002000069DFAADF60E070E080E046DF80E692E030
:10021000ADDF61E070E082E03FDF89E692E0A6DFDB
:1002200062E070E084E038DF82E792E09FDF63E025
:1002300070E086E031DF8BE792E098DF2FEF83ED0F
:1002400090E3215080409040E1F700C00000C0E6FC
:10025000D0E001E112E0CE0197DF2FEF80E792E0DE
:10026000215080409040E1F700C000002196C01767
:0A027000D10789F7FFCFF894FFCF04
:10027A005468652073656C656374696F6E206F6678
:10028A002052414D2069732073657420627920746D
:10029A0068652070726576696F757320616464722F
:1002AA006573732073657420696E737472756374F1
:1002BA00696F6E2E204966207468652061646472D5
:1002CA006573732073657420696E737472756374D1
:1002DA00696F6E206F662052414D206973206E6FE0
:1002EA007420706572666F726D6564206265666FF0
:1002FA007265207468697320696E737472756374A9
:10030A00696F6E2C2074686520646174612074685A
:10031A00617420686173206265656E20726561642C
:10032A0020666972737420697320696E76616C69DC
:10033A00642C206173207468652064697265637433
:10034A00696F6E206F66204143206973206E6F7457
:10035A00207965742064657465726D696E65642EB2
:10036A002049662052414D206461746120697320DE
:10037A0072656164207365766572616C2074696D5B
:10038A00657320776974686F75742052414D2061D6
:10039A0064647265737320696E73747275637469C9
:1003AA006F6E7320736574206265666F72652C20A8
:1003BA0072656164206F7065726174696F6E2C205A
:1003CA0074686520636F72726563742052414D20B0
:1003DA00646174612063616E206265206F6274617A
:1003EA00696E65642066726F6D2074686520736536
:1003FA00636F6E642E204275742074686520666986
:10040A00727374206461746120776F756C64206202
:10041A006520696E636F72726563742C2061732044
:10042A007468657265206973206E6F2074696D65E2
:10043A00206D617267696E20746F207472616E73C9
:10044A006665722052414D20646174612E20496EA6
:10045A002063617365206F6620444452414D2072C7
:10046A00656164206F7065726174696F6E2E2E2EDD
:10047A00537472696E67203100537472696E672013
:10048A003200537472696E67203300537472696E56
:04049A0067203400A3
:00000001FF
