S00E0000427574746F6E2E737265639A
S11300000C9434000C943E000C943E000C943E007E
S11300100C943E000C943E000C943E000C943E0064
S11300200C943E000C943E000C943E000C943E0054
S11300300C943E000C943E000C943E000C943E0044
S11300400C943E000C943E000C943E000C943E0034
S11300500C943E000C943E000C943E000C943E0024
S11300600C943E000C943E0011241FBECFEFD8E048
S1130070DEBFCDBF0E9440000C946D000C940000C4
S11300808FEF8AB91BB814B881E085B9189918C0E4
S11300901AC021E030E0082E02C0220F331F0A9458
S11300A0E2F72BB99BB190959BB92FE332E49FE023
S11300B0215030409040E1F700C000008F5F01C044
S11300C080E0883030F32FE332E48FE02150304079
S11100D08040E1F700C00000D9CFF894FFCFC4
S9030000FC
