S0130000504346383537345F4F75742E73726563C9
S11300000C9434000C9446000C9446000C94460066
S11300100C9446000C9446000C9446000C94460044
S11300200C9446000C9446000C9446000C94460034
S11300300C9446000C9446000C9446000C94460024
S11300400C9446000C9446000C9446000C94460014
S11300500C9446000C9446000C9446000C94460004
S11300600C9446000C94460011241FBECFEFD8E038
S1130070DEBFCDBF21E0A0E0B1E001C01D92A03001
S1130080B207E1F70E9448000C94C4000C940000ED
S11300900E9456000E94BD002FEF81E19AE7215093
S11300A080409040E1F700C00000F2CFCF930E945F
S11300B06D000E94770081E40E948B0080E00E9422
S11300C09900C82F0E9483008C2FCF9108950E941D
S11300D0B10008950E94BD0008958EE08093B80099
S11300E00E9467008091B9000E946A00089584EA22
S11300F08093BC008091BC008823E4F78091B90010
S11301000E946A00089584E98093BC008091B9003C
S11301100E946A0008958093BB0084E88093BC0029
S11301208091BC008823E4F78091B9000E946A00A2
S11301300895CF93DF93813021F484E88093BC0049
S113014003C084EC8093BC008091BC008823E4F756
S1130150CBEBD0E088810E946A008881DF91CF9147
S113016008951092C50087E68093C40086E08093CA
S1130170C20088E18093C10008959091C00095FF6A
S10F0180FCCF8093C6000895F894FFCFD4
S9030000FC
