S01500004144435F496E746572727570742E737265631B
S11300000C9434000C9446000C9446000C94460066
S11300100C9446000C9446000C9446000C94460044
S11300200C9446000C9446000C9446000C94460034
S11300300C9446000C9446000C9446000C94460024
S11300400C9446000C9446000C9446000C94460014
S11300500C9446000C946C000C9446000C944600DE
S11300600C9446000C94460011241FBECFEFD8E038
S1130070DEBFCDBF21E0A0E0B1E001C01D92A230FF
S1130080B207E1F70E9454000C9496000C9400000F
S1130090EAE7F0E080818F6E8083ECE7F0E0808116
S11300A0806480837894089587E690E00E948000BD
S11300B00E944800809101010E948F0080910001FC
S11300C00E948F002FEF89E698E1215080409040F4
S11300D0E1F700C00000EECF1F920F920FB60F920F
S11300E011248F938091780080930001809179008E
S11300F0809301018F910F900FBE0F901F90189560
S11301009093C5008093C400E1ECF0E0808188699D
S11301108083E2ECF0E08081846380830895909191
S1130120C00095FFFCCF8093C6000895F894FFCFDC
S9030000FC
