:020000040800F2
:1000000000280020190A00082D09000835090008F9
:100010003D090008450900084D09000800000000DE
:10002000000000000000000000000000550900086A
:1000300061090008000000006D0900087909000846
:10004000610A0008610A0008610A0008610A0008E4
:10005000610A0008610A0008610A0008610A0008D4
:10006000610A0008610A0008610A0008610A0008C4
:10007000610A0008610A0008610A0008610A0008B4
:10008000610A0008610A0008610A0008610A0008A4
:10009000610A0008610A0008610A0008610A000894
:1000A000610A0008610A0008610A0008610A000884
:1000B00085090008610A000800000000610A0008C4
:1000C000610A00080000000000000000610A00084A
:1000D00000000000610A0008610A0008000000003A
:1000E000610A0008610A0008610A000800000000B7
:1000F0000000000000000000000000000000000000
:0C01000000000000000000005FF808F1A3
:10010C0010B5054C237833B9044B13B10448AFF345
:10011C0000800123237010BD0C00002000000000A3
:10012C008C26000808B5034B1BB103490348AFF3F9
:10013C00008008BD00000000100000208C26000884
:10014C0080B582B000AF0346FB71FB79092B00F23E
:10015C00B18101A252F823F06F0400088D01000850
:10016C00DF0100083102000883020008D5020008F4
:10017C002703000879030008CB0300081D040008BE
:10018C0001220121CD4800F053FF00220221CB486F
:10019C0000F04EFF00220421C84800F049FF012264
:1001AC000821C64800F044FF01221021C34800F08A
:1001BC003FFF01222021C14800F03AFF01224021DB
:1001CC00BE4800F035FF01228021BC4800F030FF12
:1001DC0070E100220121B94800F02AFF002202211F
:1001EC00B64800F025FF01220421B44800F020FF9E
:1001FC0000220821B14800F01BFF00221021AF485B
:10020C0000F016FF01222021AC4800F011FF002263
:10021C004021AA4800F00CFF01228021A74800F0E1
:10022C0007FF47E100220121A44800F001FF002252
:10023C000221A24800F0FCFE002204219F4800F09D
:10024C00F7FE002208219D4800F0F2FE0122102149
:10025C009A4800F0EDFE01222021984800F0E8FEBB
:10026C0000224021954800F0E3FE012280219348B2
:10027C0000F0DEFE1EE101220121904800F0D8FEC4
:10028C00002202218D4800F0D3FE002204218B486D
:10029C0000F0CEFE01220821884800F0C9FE0122A0
:1002AC001021864800F0C4FE00222021834800F073
:1002BC00BFFE00224021814800F0BAFE01228021BD
:1002CC007E4800F0B5FEF5E0002201217B4800F0ED
:1002DC00AFFE01220221794800F0AAFE002204217F
:1002EC00764800F0A5FE00220821744800F0A0FE1C
:1002FC0001221021714800F09BFE002220216F4842
:10030C0000F096FE002240216C4800F091FE012284
:10031C0080216A4800F08CFECCE000220121674865
:10032C0000F086FE01220221644800F081FE0022CA
:10033C000421624800F07CFE002208215F4800F096
:10034C0077FE002210215D4800F072FE0022202171
:10035C005A4800F06DFE00224021584800F068FE1B
:10036C0001228021554800F063FEA3E00022012108
:10037C00524800F05DFE00220221504800F058FE69
:10038C00002204214D4800F053FE012208214B4865
:10039C0000F04EFE01221021484800F049FE0122D7
:1003AC002021464800F044FE01224021434800F041
:1003BC003FFE01228021414800F03AFE7AE0002203
:1003CC0001213E4800F034FE002202213B4800F09F
:1003DC002FFE00220421394800F02AFE00220821B9
:1003EC00364800F025FE00221021344800F020FE93
:1003FC0000222021314800F01BFE002240212F4812
:10040C0000F016FE012280212C4800F011FE51E074
:10041C0000220121294800F00BFE0022022127486E
:10042C0000F006FE00220421244800F001FE002208
:10043C000821224800F0FCFD012210211F4800F089
:10044C00F7FD002220211D4800F0F2FD0022402182
:10045C001A4800F0EDFD01228021184800F0E8FD5B
:10046C0028E000220121154800F0E2FD00220221C3
:10047C00124800F0DDFD00220421104800F0D8FDE8
:10048C00002208210D4800F0D3FD002210210B485A
:10049C0000F0CEFD00222021084800F0C9FD012209
:1004AC004021064800F0C4FD01228021034800F0E1
:1004BC00BFFD00BF00BF0837BD4680BD000801402E
:1004CC0080B500AF01220121134800F0B1FD0122DB
:1004DC000221114800F0ACFD012204210E4800F06D
:1004EC00A7FD012208210C4800F0A2FD01221021D9
:1004FC00094800F09DFD01222021074800F098FDDD
:10050C0001224021044800F093FD01228021024881
:10051C0000F08EFD00BF80BD0008014080B582B0A8
:10052C0000AF00F099FA00F027F800F0FDF800F0A9
:10053C0065F8FFF7C5FF00210E4801F017FA0421FA
:10054C000C4801F013FA08210A4801F00FFA0C21AB
:10055C00084801F00BFA00237B6005E07868FFF790
:10056C00EFFD7B6801337B607B6840F2E63293429F
:10057C00F4DDF0E72C00002080B590B000AF07F15F
:10058C00180328220021184602F04EF83B1D0022C9
:10059C001A605A609A60DA601A610223BB61012307
:1005AC00BB621023FB6202237B630023BB634FF40B
:1005BC006013FB6307F11803184600F051FD034666
:1005CC00002B01D000F0F0F80F237B600223BB60FE
:1005DC000023FB604FF480633B6100237B613B1D78
:1005EC000221184600F0BEFF0346002B01D000F09C
:1005FC00DBF800BF4037BD4680BD000080B58EB033
:10060C0000AF07F1280300221A605A609A60DA6082
:10061C0007F1200300221A605A603B1D00221A6069
:10062C005A609A60DA601A615A619A613D4B4FF0D8
:10063C0080421A603B4BC7225A603A4B00229A60A8
:10064C00384B4FF4FA62DA60364B00221A61354BA4
:10065C0000229A61334801F0E1F80346002B01D0E7
:10066C0000F0A2F84FF48053BB6207F1280319463F
:10067C002C4801F0E1FB0346002B01D000F094F86C
:10068C00284801F01AF90346002B01D000F08CF831
:10069C0000233B6200237B6207F1200319462148AB
:1006AC0001F058FF0346002B01D000F07DF86023C9
:1006BC007B600023BB600023FB6000237B613B1D40
:1006CC0000221946174801F0F5FA0346002B01D019
:1006DC0000F06AF83B1D04221946124801F0EAFAB0
:1006EC000346002B01D000F05FF83B1D0822194691
:1006FC000C4801F0DFFA0346002B01D000F054F84F
:10070C003B1D0C221946074801F0D4FA0346002B76
:10071C0001D000F049F8034800F0A2F800BF3837C8
:10072C00BD4680BD2C00002080B586B000AF07F11F
:10073C00080300221A605A609A60DA60184B9B69B1
:10074C00174A43F004039361154B9B6903F00403B0
:10075C007B607B68124B9B69114A43F008039361E1
:10076C000F4B9B6903F008033B603B68002240F68B
:10077C00FF710C4800F05CFC40F6FF73BB6001237A
:10078C00FB6000233B6102237B6107F108031946E0
:10079C00044800F0D1FA00BF1837BD4680BD00BF39
:1007AC00001002400008014080B400AF72B600BFD8
:1007BC0000BFFDE780B485B000AF154B9B69144AB0
:1007CC0043F001039361124B9B6903F00103BB607F
:1007DC00BB680F4BDB690E4A43F08053D3610C4B63
:1007EC00DB6903F080537B607B680A4B5B68FB60C2
:1007FC00FB6823F0E063FB60FB6843F08063FB6005
:10080C00044AFB68536000BF1437BD4680BC704778
:10081C00001002400000014080B584B000AF786049
:10082C007B681B68B3F1804F13D10C4BDB690B4A0F
:10083C0043F00103D361094BDB6903F00103FB6057
:10084C00FB68002200211C2000F03FFA1C2000F065
:10085C0058FA00BF1037BD4680BD00BF00100240E3
:10086C0080B58AB000AF786007F1140300221A60DB
:10087C005A609A60DA607B681B68B3F1804F43D191
:10088C00234B9B69224A43F008039361204B9B69DD
:10089C0003F008033B613B691D4B9B691C4A43F009
:1008AC00040393611A4B9B6903F00403FB60FB6820
:1008BC0040F608437B610223BB6102233B6207F1D4
:1008CC0014031946134800F037FA4FF400437B61C8
:1008DC000223BB6102233B6207F1140319460E4845
:1008EC0000F02AFA0D4B5B687B627B6A23F4407341
:1008FC007B627B6A43F0E0637B627B6A43F4407308
:10090C007B62064A7B6A536000BF2837BD4680BDB8
:10091C0000100240000C01400008014000000140A2
:10092C0080B400AF00BFFDE780B400AF00BFFDE7AF
:10093C0080B400AF00BFFDE780B400AF00BFFDE79F
:10094C0080B400AF00BFFDE780B400AF00BFBD4670
:10095C0080BC704780B400AF00BFBD4680BC704700
:10096C0080B400AF00BFBD4680BC704780B500AFFF
:10097C0000F0B8F800BF80BD80B500AF1A4801F098
:10098C0091F81A4B1B78002B04D1194B1B78184685
:10099C00FFF7D6FB154B1B78012B04D1154B1B789D
:1009AC001846FFF7CDFB114B1B78022B04D1124BD1
:1009BC001B781846FFF7C4FB0C4B1B78032B04D198
:1009CC000E4B1B781846FFF7BBFB084B1B7801330B
:1009DC00DAB2064B1A70054B1B78032B02D9034B6A
:1009EC0000221A7000BF80BD2C0000207400002073
:1009FC0028000020290000202A0000202B000020C5
:100A0C0080B400AF00BFBD4680BC7047FFF7F8FF55
:100A1C000B480C490C4A002302E0D458C450043350
:100A2C00C4188C42F9D3094A094C002301E0136025
:100A3C000432A242FBD301F0FFFDFFF76FFD7047BC
:100A4C00000000200C000020D02600080C00002024
:100A5C007C000020FEE7000080B500AF084B1B684F
:100A6C00074A43F010031360032000F023F90F2012
:100A7C0000F008F8FFF79EFE0023184680BD00BF6B
:100A8C000020024080B582B000AF7860124B1A682B
:100A9C00124B1B7819464FF47A73B3FBF1F3B2FB8C
:100AAC00F3F3184600F03BF90346002B01D0012369
:100ABC000EE07B680F2B0AD8002279684FF0FF30CC
:100ACC0000F003F9064A7B681360002300E0012361
:100ADC0018460837BD4680BD0000002008000020E5
:100AEC000400002080B400AF054B1B781A46054B60
:100AFC001B681344034A136000BFBD4680BC70479B
:100B0C00080000207800002080B400AF024B1B6866
:100B1C001846BD4680BC70477800002080B485B074
:100B2C0000AF78607B6803F00703FB600C4BDB685D
:100B3C00BB60BA684FF6FF031340BB60FB681A0238
:100B4C00BB68134343F0BF6343F40033BB60044AF8
:100B5C00BB68D36000BF1437BD4680BC704700BF74
:100B6C0000ED00E080B400AF044BDB681B0A03F01F
:100B7C0007031846BD4680BC704700BF00ED00E07F
:100B8C0080B483B000AF0346FB7197F90730002B9C
:100B9C000BDBFB7903F01F02064997F907305B0961
:100BAC00012000FA02F241F8232000BF0C37BD46A9
:100BBC0080BC704700E100E080B483B000AF034616
:100BCC003960FB7197F90730002B0ADB3B68DAB20E
:100BDC000C4997F907301201D2B20B4483F8002369
:100BEC000AE03B68DAB20849FB7903F00F03043BD7
:100BFC001201D2B20B441A7600BF0C37BD4680BC32
:100C0C00704700BF00E100E000ED00E080B489B067
:100C1C0000AFF860B9607A60FB6803F00703FB6112
:100C2C00FB69C3F10703042B28BF0423BB61FB69D9
:100C3C000433062B02D9FB69033B00E000237B61E4
:100C4C004FF0FF32BB6902FA03F3DA43BB681A4078
:100C5C007B699A404FF0FF317B6901FA03F3D9436A
:100C6C007B680B40134318462437BD4680BC704745
:100C7C0080B582B000AF78607B68013BB3F1807FB8
:100C8C0001D301230FE00A4A7B68013B53600F211B
:100C9C004FF0FF30FFF790FF054B00229A60044B9A
:100CAC0007221A60002318460837BD4680BD00BFD6
:100CBC0010E000E080B582B000AF78607868FFF794
:100CCC002DFF00BF0837BD4680BD80B586B000AF94
:100CDC000346B9607A60FB7300237B61FFF742FF28
:100CEC0078617A68B9687869FFF790FF024697F9DE
:100CFC000F3011461846FFF75FFF00BF1837BD468F
:100D0C0080BD80B582B000AF0346FB7197F9073008
:100D1C001846FFF735FF00BF0837BD4680BD80B5CC
:100D2C0082B000AF78607868FFF7A2FF03461846E0
:100D3C000837BD4680BD000080B48BB000AF786032
:100D4C00396000237B6200233B6261E101227B6AF4
:100D5C0002FA03F3FB613B681B68FA691340BB6141
:100D6C00BA69FB699A4240F050813B685B68974ACC
:100D7C0093425ED0954A934275D8954A934258D087
:100D8C00934A93426FD8934A934252D0914A9342DA
:100D9C0069D8914A93424CD08F4A934263D88F4A78
:100DAC00934246D08D4A93425DD8122B2AD8122BEF
:100DBC0059D801A252F823F03F0E0008190E000872
:100DCC002B0E00086D0E0008730E0008730E000841
:100DDC00730E0008730E0008730E0008730E0008E3
:100DEC00730E0008730E0008730E0008730E0008D3
:100DFC00730E0008730E0008730E0008210E000815
:100E0C00350E0008764A934213D02CE03B68DB6821
:100E1C003B6229E03B68DB6804333B6224E03B68BF
:100E2C00DB6808333B621FE03B68DB680C333B62DA
:100E3C001AE03B689B68002B02D104233B6213E051
:100E4C003B689B68012B05D108233B627B68FA69E0
:100E5C001A6109E008233B627B68FA695A6103E076
:100E6C0000233B6200E000BFBB69FF2B01D87B680D
:100E7C0001E07B6804337B61BB69FF2B02D87B6A82
:100E8C009B0002E07B6A083B9B003B617B691A6814
:100E9C000F213B6901FA03F3DB431A40396A3B69C2
:100EAC0001FA03F31A437B691A603B685B6803F031
:100EBC008053002B00F0A9804A4B9B69494A43F0B0
:100ECC0001039361474B9B6903F00103BB60BB6853
:100EDC00454A7B6A9B08023352F82330FB607B6ADD
:100EEC0003F003039B000F2202FA03F3DB43FA68BF
:100EFC001340FB607B683D4A93420DD07B683C4AB3
:100F0C00934207D07B683B4A934201D1022304E011
:100F1C00032302E0012300E000237A6A02F00302BB
:100F2C0092009340FA681343FB602F497B6A9B083D
:100F3C000233FA6841F823203B685B6803F48013A2
:100F4C00002B06D02C4B9A682B49BB6913438B6042
:100F5C0006E0294B9A68BB69DB43274913408B6039
:100F6C003B685B6803F40013002B06D0224BDA6855
:100F7C002149BB691343CB6006E01F4BDA68BB69A0
:100F8C00DB431D491340CB603B685B6803F40033C3
:100F9C00002B06D0184B5A681749BB6913434B609A
:100FAC0006E0154B5A68BB69DB43134913404B6091
:100FBC003B685B6803F48033002B1FD00E4B1A6820
:100FCC000D49BB6913430B601FE000BF00003210DA
:100FDC00000031100000221000002110000012103F
:100FEC0000001110001002400000014000080140F8
:100FFC00000C014000100140000401400B4B1A682A
:10100C00BB69DB43094913400B607B6A01337B628C
:10101C003B681A687B6A22FA03F3002B7FF496AEC6
:10102C0000BF00BF2C37BD4680BC70470004014098
:10103C0080B483B000AF78600B467B8013467B7026
:10104C007B78002B03D07A887B681A6103E07B885D
:10105C001A047B681A6100BF0C37BD4680BC704710
:10106C0080B586B000AF78607B68002B01D101237E
:10107C0072E27B681B6803F00103002B00F0878091
:10108C00924B5B6803F00C03042B0CD08F4B5B680A
:10109C0003F00C03082B12D18C4B5B6803F48033E8
:1010AC00B3F5803F0BD1894B1B6803F40033002B45
:1010BC006CD07B685B68002B68D101234CE27B68A9
:1010CC005B68B3F5803F06D1804B1B687F4A43F4C5
:1010DC00803313602EE07B685B68002B0CD17B4B5C
:1010EC001B687A4A23F480331360784B1B68774A69
:1010FC0023F4802313601DE07B685B68B3F5A02F9D
:10110C000CD1724B1B68714A43F4802313606F4BF4
:10111C001B686E4A43F4803313600BE06B4B1B6807
:10112C006A4A23F480331360684B1B68674A23F4C4
:10113C00802313607B685B68002B13D0FFF7E4FC03
:10114C00386108E0FFF7E0FC02463B69D31A642BD8
:10115C0001D9032300E25D4B1B6803F40033002B21
:10116C00F0D014E0FFF7D0FC386108E0FFF7CCFCBE
:10117C0002463B69D31A642B01D90323ECE1534B90
:10118C001B6803F40033002BF0D100E000BF7B6838
:10119C001B6803F00203002B63D04C4B5B6803F01D
:1011AC000C03002B0BD0494B5B6803F00C03082B92
:1011BC001CD1464B5B6803F48033002B16D1434B98
:1011CC001B6803F00203002B05D07B681B69012B05
:1011DC0001D00123C0E13D4B1B6823F0F8027B6872
:1011EC005B69DB00394913430B603AE07B681B6990
:1011FC00002B20D0364B01221A60FFF785FC38619A
:10120C0008E0FFF781FC02463B69D31A022B01D997
:10121C000323A1E12D4B1B6803F00203002BF0D03C
:10122C002A4B1B6823F0F8027B685B69DB002749BB
:10123C0013430B6015E0264B00221A60FFF764FC89
:10124C00386108E0FFF760FC02463B69D31A022BB9
:10125C0001D9032380E11D4B1B6803F00203002B13
:10126C00F0D17B681B6803F00803002B3AD07B6835
:10127C009B69002B19D0174B01221A60FFF744FC15
:10128C00386108E0FFF740FC02463B69D31A022B99
:10129C0001D9032360E10D4B5B6A03F00203002BC1
:1012AC00F0D0012000F09CFA1CE00A4B00221A60DE
:1012BC00FFF72AFC38610FE0FFF726FC02463B697A
:1012CC00D31A022B08D9032346E100BF00100240B9
:1012DC000000424280044242924B5B6A03F00203DC
:1012EC00002BE9D17B681B6803F00403002B00F092
:1012FC00A6800023FB758B4BDB6903F08053002B1E
:10130C000DD1884BDB69874A43F08053D361854B01
:10131C00DB6903F08053BB60BB680123FB75824B18
:10132C001B6803F48073002B18D17F4B1B687E4A1B
:10133C0043F480731360FFF7E7FB386108E0FFF7B5
:10134C00E3FB02463B69D31A642B01D9032303E167
:10135C00754B1B6803F48073002BF0D07B68DB6843
:10136C00012B06D16F4B1B6A6E4A43F001031362CB
:10137C002DE07B68DB68002B0CD16A4B1B6A694A39
:10138C0023F001031362674B1B6A664A23F00403C4
:10139C0013621CE07B68DB68052B0CD1614B1B6A6C
:1013AC00604A43F0040313625E4B1B6A5D4A43F0D0
:1013BC00010313620BE05B4B1B6A5A4A23F00103D7
:1013CC001362584B1B6A574A23F0040313627B6861
:1013DC00DB68002B15D0FFF797FB38610AE0FFF7AD
:1013EC0093FB02463B69D31A41F28832934201D9EE
:1013FC000323B1E04B4B1B6A03F00203002BEED02E
:10140C0014E0FFF781FB38610AE0FFF77DFB024631
:10141C003B69D31A41F28832934201D903239BE0F2
:10142C00404B1B6A03F00203002BEED1FB7D012B1A
:10143C0005D13C4BDB693B4A23F08053D3617B687D
:10144C00DB69002B00F08780364B5B6803F00C03E4
:10145C00082B61D07B68DB69022B46D1334B002211
:10146C001A60FFF751FB386108E0FFF74DFB0246AD
:10147C003B69D31A022B01D903236DE0294B1B685E
:10148C0003F00073002BF0D17B681B6AB3F5803F2F
:10149C0008D1244B5B6823F400327B689B6821499C
:1014AC0013434B601F4B5B6823F474127B68196AFF
:1014BC007B685B6A0B431B4913434B601B4B01223C
:1014CC001A60FFF721FB386108E0FFF71DFB0246AD
:1014DC003B69D31A022B01D903233DE0114B1B6846
:1014EC0003F00073002BF0D035E0104B00221A6093
:1014FC00FFF70AFB386108E0FFF706FB02463B6981
:10150C00D31A022B01D9032326E0064B1B6803F0E8
:10151C000073002BF0D11EE07B68DB69012B07D137
:10152C00012319E0001002400070004060004242AC
:10153C000B4B5B68FB60FB6803F480327B681B6AB7
:10154C009A4206D1FB6803F470127B685B6A9A427C
:10155C0001D0012300E0002318461837BD4680BD9A
:10156C000010024080B584B000AF786039607B68B1
:10157C00002B01D10123D0E06A4B1B6803F0070359
:10158C003A689A4210D9674B1B6823F007026549E9
:10159C003B6813430B60634B1B6803F007033A680B
:1015AC009A4201D00123B8E07B681B6803F0020368
:1015BC00002B20D07B681B6803F00403002B05D0A4
:1015CC00594B5B68584A43F4E06353607B681B6873
:1015DC0003F00803002B05D0534B5B68524A43F4CD
:1015EC0060535360504B5B6823F0F0027B689B6840
:1015FC004D4913434B607B681B6803F00103002BC0
:10160C0040D07B685B68012B07D1474B1B6803F408
:10161C000033002B15D101237FE07B685B68022B24
:10162C0007D1414B1B6803F00073002B09D1012338
:10163C0073E03D4B1B6803F00203002B01D1012327
:10164C006BE0394B5B6823F003027B685B683649BF
:10165C0013434B60FFF758FAF8600AE0FFF754FAAF
:10166C000246FB68D31A41F28832934201D9032314
:10167C0053E02D4B5B6803F00C027B685B689B00AE
:10168C009A42EBD1274B1B6803F007033A689A4246
:10169C0010D2244B1B6823F0070222493B681343EA
:1016AC000B60204B1B6803F007033A689A4201D089
:1016BC00012332E07B681B6803F00403002B08D085
:1016CC00194B5B6823F4E0627B68DB6816491343B3
:1016DC004B607B681B6803F00803002B09D0124B8E
:1016EC005B6823F460527B681B69DB000E49134373
:1016FC004B6000F021F802460B4B5B681B0903F0B2
:10170C000F030A49CB5C22FA03F3094A1360094B15
:10171C001B681846FFF7B6F9002318461037BD466C
:10172C0080BD00BF0020024000100240A42600082B
:10173C00000000200400002080B487B000AF00231C
:10174C00FB600023BB6000237B6100237B600023D4
:10175C003B611E4B5B68FB60FB6803F00C03042BC6
:10176C0002D0082B03D027E0194B3B6127E0FB6824
:10177C009B0C03F00F03174AD35C7B60FB6803F4EC
:10178C008033002B10D0114B5B685B0C03F0010312
:10179C00114AD35CBB607B680D4A03FB02F2BB6849
:1017AC00B2FBF3F37B6104E07B680C4A02FB03F3AE
:1017BC007B617B693B6102E0054B3B6100BF3B6990
:1017CC0018461C37BD4680BC704700BF0010024055
:1017DC0000127A00B4260008C426000800093D0057
:1017EC0080B485B000AF78600A4B1B680A4AA2FB34
:1017FC0003235B0A7A6802FB03F3FB6000BFFB6800
:10180C005A1EFA60002BF9D100BF00BF1437BD4639
:10181C0080BC704700000020D34D621080B582B0B0
:10182C0000AF78607B68002B01D1012341E07B681D
:10183C0093F83D30DBB2002B06D17B68002283F895
:10184C003C207868FEF7E8FF7B68022283F83D2095
:10185C007B681A687B6804331946104600F0E0FB7D
:10186C007B68012283F846207B68012283F83E20A6
:10187C007B68012283F83F207B68012283F840209B
:10188C007B68012283F841207B68012283F8422087
:10189C007B68012283F843207B68012283F8442073
:1018AC007B68012283F845207B68012283F83D2068
:1018BC00002318460837BD4680BD80B582B000AF06
:1018CC0078607B68002B01D1012341E07B6893F8A1
:1018DC003D30DBB2002B06D17B68002283F83C2024
:1018EC00786800F039F87B68022283F83D207B6829
:1018FC001A687B6804331946104600F091FB7B682C
:10190C00012283F846207B68012283F83E207B6805
:10191C00012283F83F207B68012283F840207B68FA
:10192C00012283F841207B68012283F842207B68E6
:10193C00012283F843207B68012283F844207B68D2
:10194C00012283F845207B68012283F83D20002387
:10195C0018460837BD4680BD80B483B000AF7860B0
:10196C0000BF0C37BD4680BC7047000080B584B00A
:10197C0000AF786039603B68002B09D17B6893F825
:10198C003E30DBB2012B14BF01230023DBB222E07B
:10199C003B68042B09D17B6893F83F30DBB2012BF9
:1019AC0014BF01230023DBB215E03B68082B09D1DF
:1019BC007B6893F84030DBB2012B14BF012300236A
:1019CC00DBB208E07B6893F84130DBB2012B14BF2B
:1019DC0001230023DBB2002B01D0012359E03B682B
:1019EC00002B04D17B68022283F83E2013E03B6875
:1019FC00042B04D17B68022283F83F200BE03B6868
:101A0C00082B04D17B68022283F8402003E07B681A
:101A1C00022283F841207B681B6801223968184632
:101A2C0000F074FD7B681B681C4A934207D17B68ED
:101A3C001B685A6C7B681B6842F400425A647B68D2
:101A4C001B68164A934209D07B681B68B3F1804F20
:101A5C0004D07B681B68124A934211D17B681B68C7
:101A6C009B6803F00703FB60FB68062B10D07B68B8
:101A7C001B681A687B681B6842F001021A6007E059
:101A8C007B681B681A687B681B6842F001021A604D
:101A9C00002318461037BD4680BD00BF002C014006
:101AAC000004004080B582B000AF78607B681B6892
:101ABC001B6903F00203022B22D17B681B68DB68D5
:101ACC0003F00203022B1BD17B681B686FF0020230
:101ADC001A617B6801221A777B681B689B6903F08B
:101AEC000303002B03D0786800F07FFA05E07868D8
:101AFC0000F072FA786800F081FA7B6800221A779D
:101B0C007B681B681B6903F00403042B22D17B68E0
:101B1C001B68DB6803F00403042B1BD17B681B6878
:101B2C006FF004021A617B6802221A777B681B68CB
:101B3C009B6903F44073002B03D0786800F055FACE
:101B4C0005E0786800F048FA786800F057FA7B688E
:101B5C0000221A777B681B681B6903F00803082BAB
:101B6C0022D17B681B68DB6803F00803082B1BD1B0
:101B7C007B681B686FF008021A617B6804221A7775
:101B8C007B681B68DB6903F00303002B03D07868C8
:101B9C0000F02BFA05E0786800F01EFA786800F087
:101BAC002DFA7B6800221A777B681B681B6903F08F
:101BBC001003102B22D17B681B68DB6803F0100329
:101BCC00102B1BD17B681B686FF010021A617B68AD
:101BDC0008221A777B681B68DB6903F44073002BBF
:101BEC0003D0786800F001FA05E0786800F0F4F9A9
:101BFC00786800F003FA7B6800221A777B681B6810
:101C0C001B6903F00103012B0ED17B681B68DB6899
:101C1C0003F00103012B07D17B681B686FF00102F5
:101C2C001A61786800F0CFF97B681B681B6903F0B8
:101C3C008003802B0ED17B681B68DB6803F080036C
:101C4C00802B07D17B681B686FF080021A61786863
:101C5C0000F0E1FC7B681B681B6903F04003402B20
:101C6C000ED17B681B68DB6803F04003402B07D167
:101C7C007B681B686FF040021A61786800F0C7F946
:101C8C007B681B681B6903F02003202B0ED17B683B
:101C9C001B68DB6803F02003202B07D17B681B68D3
:101CAC006FF020021A61786800F0ACFC00BF0837B6
:101CBC00BD4680BD80B586B000AFF860B9607A6073
:101CCC000023FB75FB6893F83C30012B01D10223F8
:101CDC00AEE0FB68012283F83C207B680C2B00F201
:101CEC009F8001A252F823F0291D00082D1E000828
:101CFC002D1E00082D1E0008691D00082D1E000851
:101D0C002D1E00082D1E0008AB1D00082D1E0008FE
:101D1C002D1E00082D1E0008EB1D0008FB681B681B
:101D2C00B968184600F0D4F9FB681B689A69FB681F
:101D3C001B6842F008029A61FB681B689A69FB6891
:101D4C001B6822F004029A61FB681B689969BB68E6
:101D5C001A69FB681B680A439A6164E0FB681B689C
:101D6C00B968184600F01AFAFB681B689A69FB6898
:101D7C001B6842F400629A61FB681B689A69FB68F5
:101D8C001B6822F480629A61FB681B689969BB68C6
:101D9C001B691A02FB681B680A439A6143E0FB68E3
:101DAC001B68B968184600F063FAFB681B68DA69AF
:101DBC00FB681B6842F00802DA61FB681B68DA6991
:101DCC00FB681B6822F00402DA61FB681B68D969A6
:101DDC00BB681A69FB681B680A43DA6123E0FB687D
:101DEC001B68B968184600F0ADFAFB681B68DA6925
:101DFC00FB681B6842F40062DA61FB681B68DA69F5
:101E0C00FB681B6822F48062DA61FB681B68D96985
:101E1C00BB681B691A02FB681B680A43DA6102E0A3
:101E2C000123FB7500BFFB68002283F83C20FB7D7F
:101E3C0018461837BD4680BD80B584B000AF7860B9
:101E4C0039600023FB737B6893F83C30012B01D184
:101E5C000223B4E07B68012283F83C207B680222D9
:101E6C0083F83D207B681B689B68BB60BB6823F0D4
:101E7C007703BB60BB6823F47F43BB607B681B6844
:101E8C00BA689A603B681B68B3F5005F3ED0B3F547
:101E9C00005F00F28780B3F5805F00F08680B3F5B9
:101EAC00805F7FD8702B1AD0702B7BD8602B50D0D2
:101EBC00602B77D8502B3CD0502B73D8402B58D05C
:101ECC00402B6FD8302B64D0302B6BD8202B60D0AC
:101EDC00202B67D8002B5CD0102B5AD062E07B688B
:101EEC0018683B6899683B685A683B68DB6800F087
:101EFC00EEFA7B681B689B68BB60BB6843F077039A
:101F0C00BB607B681B68BA689A604FE07B68186896
:101F1C003B6899683B685A683B68DB6800F0D7FA05
:101F2C007B681B689A687B681B6842F480429A60E5
:101F3C003CE07B6818683B6859683B68DB681A466C
:101F4C0000F04EFA7B681B685021184600F0A5FA89
:101F5C002CE07B6818683B6859683B68DB681A465C
:101F6C0000F06CFA7B681B686021184600F095FA4B
:101F7C001CE07B6818683B6859683B68DB681A464C
:101F8C0000F02EFA7B681B684021184600F085FA99
:101F9C000CE07B681A683B681B681946104600F019
:101FAC007CFA03E00123FB7300E000BF7B68012295
:101FBC0083F83D207B68002283F83C20FB7B18468D
:101FCC001037BD4680BD80B483B000AF786000BFD1
:101FDC000C37BD4680BC704780B483B000AF7860CE
:101FEC0000BF0C37BD4680BC704780B483B000AFD7
:101FFC00786000BF0C37BD4680BC704780B483B09E
:10200C0000AF786000BF0C37BD4680BC704780B411
:10201C0083B000AF786000BF0C37BD4680BC704702
:10202C0080B485B000AF786039607B681B68FB605A
:10203C007B68254A934207D07B68B3F1804F03D06D
:10204C007B68224A934208D1FB6823F07003FB6043
:10205C003B685B68FA681343FB607B681A4A9342DF
:10206C0007D07B68B3F1804F03D07B68174A93424B
:10207C0008D1FB6823F44073FB603B68DB68FA68AB
:10208C001343FB60FB6823F080023B685B691343DE
:10209C00FB607B68FA681A603B689A687B68DA6256
:1020AC003B681A687B689A627B68074A934203D143
:1020BC003B681A697B681A637B6801225A6100BF0E
:1020CC001437BD4680BC7047002C01400004004012
:1020DC0080B487B000AF786039607B681B6A7B6125
:1020EC007B681B6A23F001027B681A627B685B6861
:1020FC003B617B689B69FB60FB6823F07003FB60B2
:10210C00FB6823F00303FB603B681B68FA6813430E
:10211C00FB607B6923F002037B613B689B687A69F7
:10212C0013437B617B681C4A93420CD17B6923F07F
:10213C0008037B613B68DB687A6913437B617B69CD
:10214C0023F004037B617B68134A934211D13B69F2
:10215C0023F480733B613B6923F400733B613B6860
:10216C005B693A6913433B613B689B693A6913436A
:10217C003B617B683A695A607B68FA689A613B6894
:10218C005A687B685A637B687A691A6200BF1C378D
:10219C00BD4680BC704700BF002C014080B487B0A6
:1021AC0000AF786039607B681B6A7B617B681B6A57
:1021BC0023F010027B681A627B685B683B617B686A
:1021CC009B69FB60FB6823F4E043FB60FB6823F432
:1021DC004073FB603B681B681B02FA681343FB608F
:1021EC007B6923F020037B613B689B681B017A6948
:1021FC0013437B617B681D4A93420DD17B6923F0AD
:10220C0080037B613B68DB681B017A6913437B614C
:10221C007B6923F040037B617B68144A934213D1A2
:10222C003B6923F480633B613B6923F400633B61AE
:10223C003B685B699B003A6913433B613B689B6954
:10224C009B003A6913433B617B683A695A607B682F
:10225C00FA689A613B685A687B689A637B687A690A
:10226C001A6200BF1C37BD4680BC7047002C014071
:10227C0080B487B000AF786039607B681B6A7B6183
:10228C007B681B6A23F480727B681A627B685B68CC
:10229C003B617B68DB69FB60FB6823F07003FB60D0
:1022AC00FB6823F00303FB603B681B68FA6813436D
:1022BC00FB607B6923F400737B613B689B681B02AA
:1022CC007A6913437B617B681D4A93420DD17B690C
:1022DC0023F400637B613B68DB681B027A69134360
:1022EC007B617B6923F480637B617B68144A934236
:1022FC0013D13B6923F480533B613B6923F40053B6
:10230C003B613B685B691B013A6913433B613B686A
:10231C009B691B013A6913433B617B683A695A60BC
:10232C007B68FA68DA613B685A687B68DA637B68B9
:10233C007A691A6200BF1C37BD4680BC704700BF6B
:10234C00002C014080B487B000AF786039607B68A6
:10235C001B6A3B617B681B6A23F480527B681A62A0
:10236C007B685B687B617B68DB69FB60FB6823F4E3
:10237C00E043FB60FB6823F44073FB603B681B6825
:10238C001B02FA681343FB603B6923F400533B6167
:10239C003B689B681B033A6913433B617B680F4A9C
:1023AC00934209D17B6923F480437B613B685B6971
:1023BC009B017A6913437B617B687A695A607B68FD
:1023CC00FA68DA613B685A687B681A647B683A6918
:1023DC001A6200BF1C37BD4680BC7047002C014000
:1023EC0080B487B000AFF860B9607A60FB681B6A94
:1023FC007B61FB681B6A23F00102FB681A62FB68B5
:10240C009B693B613B6923F0F0033B617B681B01DB
:10241C003A6913433B617B6923F00A037B617A6958
:10242C00BB6813437B61FB683A699A61FB687A6904
:10243C001A6200BF1C37BD4680BC704780B487B0A1
:10244C0000AFF860B9607A60FB681B6A7B61FB685F
:10245C001B6A23F01002FB681A62FB689B693B61E4
:10246C003B6923F470433B617B681B033A6913435C
:10247C003B617B6923F0A0037B61BB681B017A691C
:10248C0013437B61FB683A699A61FB687A691A624B
:10249C0000BF1C37BD4680BC704780B485B000AF10
:1024AC00786039607B689B68FB60FB6823F0700385
:1024BC00FB603A68FB68134343F00703FB607B68DF
:1024CC00FA689A6000BF1437BD4680BC704780B470
:1024DC0087B000AFF860B9607A603B60FB689B68BE
:1024EC007B617B6923F47F437B613B681A027B68C9
:1024FC001A43BB6813437A6913437B61FB687A699F
:10250C009A6000BF1C37BD4680BC704780B487B052
:10251C0000AFF860B9607A60BB6803F01F0301225A
:10252C0002FA03F37B61FB681A6A7B69DB431A408E
:10253C00FB681A62FB681A6ABB6803F01F037968B0
:10254C0001FA03F31A43FB681A6200BF1C37BD463D
:10255C0080BC704780B485B000AF786039607B6810
:10256C0093F83C30012B01D1022341E07B6801221E
:10257C0083F83C207B68022283F83D207B681B6833
:10258C005B68FB607B681B689B68BB60FB6823F027
:10259C007003FB603B681B68FA681343FB607B6845
:1025AC001B68FA685A607B681B68144A934209D00E
:1025BC007B681B68B3F1804F04D07B681B68104AA2
:1025CC0093420CD1BB6823F08003BB603B685B6813
:1025DC00BA681343BB607B681B68BA689A607B68F7
:1025EC00012283F83D207B68002283F83C200023E5
:1025FC0018461437BD4680BC704700BF002C014004
:10260C000004004080B483B000AF786000BF0C378A
:10261C00BD4680BC704780B483B000AF786000BF0B
:10262C000C37BD4680BC704703460244934200D130
:10263C00704703F8011BF9E770B500260C4D0D4CE3
:10264C00641BA410A64209D100F01AF800260A4D0A
:10265C000A4C641BA410A64205D170BD55F8043B6E
:10266C0098470136EEE755F8043B98470136F2E7F8
:10267C00C8260008C8260008C8260008CC26000872
:10268C00F8B500BFF8BC08BC9E467047F8B500BF53
:08269C00F8BC08BC9E46704723
:1026A40000000000000000000102030406070809FE
:1026B40002030405060708090A0B0C0D0E0F10107F
:0426C400010200000F
:0426C80031010008D4
:0426CC000D010008F4
:0C26D0000024F4001000000001000000D5
:0400000508000A19CC
:00000001FF
