S0100000454550524F4D5F312E73726563BC
S11300000C9434000C943E000C943E000C943E007E
S11300100C943E000C943E000C943E000C943E0064
S11300200C943E000C943E000C943E000C943E0054
S11300300C943E000C943E000C943E000C943E0044
S11300400C943E000C943E000C943E000C943E0034
S11300500C943E000C943E000C943E000C943E0024
S11300600C943E000C943E0011241FBECFEFD8E048
S1130070DEBFCDBF0E9457000C947D000C9400009D
S1130080F999FECF80BD72BD61BD8FB38FBB8FB3B5
S113009084608FBB8FB382608FBB0895F999FECFC4
S11300A092BD81BD8FB381608FBB80B5089560E040
S11300B070E081E090E00E94400061E070E082E046
S11300C090E00E94400062E070E083E090E00E94D3
S11300D0400080E090E00E944E00813039F465E0F9
S11300E070E085E090E00E94400006C065E070E0AA
S11100F085E290E00E944000FFCFF894FFCF1D
S9030000FC
