S0100000454550524F4D5F312E73726563BC
S11300000C9434000C943E000C943E000C943E007E
S11300100C943E000C943E000C943E000C943E0064
S11300200C943E000C943E000C943E000C943E0054
S11300300C943E000C943E000C943E000C943E0044
S11300400C943E000C943E000C943E000C943E0034
S11300500C943E000C943E000C943E000C943E0024
S11300600C943E000C943E0011241FBECFEFD8E048
S1130070DEBFCDBF0E944E000C9461000C940000C2
S1130080F999FECF80BD72BD61BD8FB38FBB8FB3B5
S113009084608FBB8FB382608FBB089560E070E093
S11300A087E790E00E94400061E070E088E890E01B
S11300B00E94400062E070E089E990E00E94400004
S10900C0EDCFF894FFCF20
S9030000FC
