:100000000C9434000C943E000C943E000C943E0082
:100010000C943E000C943E000C943E000C943E0068
:100020000C943E000C943E000C943E000C943E0058
:100030000C943E000C943E000C943E000C943E0048
:100040000C943E000C943E000C943E000C943E0038
:100050000C943E000C943E000C943E000C943E0028
:100060000C943E000C943E0011241FBECFEFD8E04C
:10007000DEBFCDBF0E9440000C9473000C940000C2
:1000800087E690E00E945D008FE40E946C008BE6A2
:100090000E946C0081E20E946C008DE00E946C0066
:1000A0008AE00E946C002FEF89E698E121508040A1
:1000B0009040E1F700C00000E7CF9093C500809327
:1000C000C400E1ECF0E0808188698083E2ECF0E03C
:1000D00080818463808308959091C00095FFFCCF58
:0A00E0008093C6000895F894FFCF46
:00000001FF
