:1000000012C02CC02BC02AC029C028C027C026C0BF
:1000100025C024C023C022C021C020C020C01EC0D3
:100020001DC01CC01BC011241FBECFE5D4E0DEBF25
:10003000CDBF10E0A0E6B0E0E0EDF2E002C0059038
:100040000D92A43AB107D9F720E0A4EAB0E001C0CC
:100050001D92AC3AB207E1F7EDD038C1D1CF1F9273
:100060000F920FB60F9211242F933F934F935F93EC
:100070006F937F938F939F93AF93BF9384B180933C
:10008000A40025B12093A5008091AA009091AB0017
:100090008431910588F44091A8005091A900BA01DB
:1000A000620F711D7093A9006093A8000196909350
:1000B000AB008093AA0019C02091A8003091A9003C
:1000C000ADECBCECF7D0929582958F7089279F702C
:1000D00089279093A7008093A6001092AB001092FE
:1000E000AA001092A9001092A800BF91AF919F9111
:1000F0008F917F916F915F914F913F912F910F90D1
:100100000FBE0F901F90189586B18F6E86B987B17C
:10011000806687B90895939AE7ECF0E03197F1F79C
:1001200000C0000092B39F7092BB92B38295807F13
:10013000892B82BB939887EC90E00197F1F700C080
:1001400000000895CF93C82F611102C0929801C09A
:10015000929A8C2F82958F70DEDF8C2FDCDFCF910F
:10016000089561E0EFDF089590E4699F800D112408
:1001700060E08068E7DF08958FE59AEE0197F1F778
:1001800000C0000083E0C7DF8FE79EE30197F1F72F
:1001900000C0000083E0BFDF8FE891E00197F1F736
:1001A00000C0000083E0B7DF8FE99FE00197F1F71F
:1001B00000C0000082E0AFDF8FE99FE00197F1F718
:1001C00000C0000060E088E2BDDF8FE99FE001979A
:1001D000F1F700C0000060E08CE0B4DF8FE99FE041
:1001E0000197F1F700C0000060E086E0ABDF8FE927
:1001F0009FE00197F1F700C00000089560E081E002
:10020000A1DF8FE697E10197F1F700C000000895A4
:10021000CF93DF93EC018881882329F02196A1DF19
:1002200089918111FCCFDF91CF91089512BA8FEFA0
:1002300081BB0895FBDFA0DF67DF7894DFDF60E03C
:1002400070E080E091DF80E690E0E2DF61E070E066
:1002500080E08ADF8091A6009091A7008931910506
:1002600020F48CE690E0D4DF1BC08134910520F4AB
:1002700087E790E0CDDF14C08337910520F482E852
:1002800090E0C6DF0DC0843B910520F48DE890E03E
:10029000BFDF06C0863E910518F488E990E0B8DF1C
:1002A0002FEF83EC99E0215080409040E1F700C0AF
:1002B0000000CCCFA29FB001B39FC001A39F01D08B
:1002C000B29F700D811D1124911D0895F894FFCFE8
:1002D000427574746F6E20546573740052494748B8
:1002E00054204B455920005550204B455920202083
:1002F0002000444F574E204B45592020004C454686
:1003000054204B455920200053454C454354204B25
:04031000455900004B
:00000001FF
