:020000040800F2
:1000000000280020DD0400085104000859040008FD
:100010006104000869040008710400080000000081
:10002000000000000000000000000000790400084B
:100030008504000800000000910400089D040008E9
:1000400025050008250500082505000825050008E8
:1000500025050008250500082505000825050008D8
:1000600025050008250500082505000825050008C8
:1000700025050008250500082505000825050008B8
:1000800025050008250500082505000825050008A8
:100090002505000825050008250500082505000898
:1000A0002505000825050008250500082505000888
:1000B000250500082505000800000000A904000827
:1000C000BD04000800000000000000002505000835
:1000D00000000000250500082505000800000000BC
:1000E000250500082505000825050008000000007A
:1000F0000000000000000000000000000000000000
:0C01000000000000000000005FF808F1A3
:10010C0010B5054C237833B9044B13B10448AFF345
:10011C0000800123237010BD10000020000000009F
:10012C001048000808B5034B1BB103490348AFF353
:10013C00008008BD000000001400002010480008DA
:10014C0080B582B002AF00F0E9F900F04BF800F096
:10015C00B3F800F083F8002004F096F8002004F0C7
:10016C0013F801220121002004F04EF81849002058
:10017C0004F0FCFA01220221002004F045F8154994
:10018C00002004F0F3FA0A2300930123124AD02131
:10019C00124800F0C9FE0A2300930123104AD02113
:1001AC000E4800F0BFFF002003F0EEFF01220121FA
:1001BC00002004F029F80A4B1B781946002004F0A3
:1001CC00D5FA4FF47A7000F00BFA00BFDBE700BFF2
:1001DC002848000834480008000000202C000020AB
:1001EC008000002080B590B000AF07F118032822E2
:1001FC000021184604F0DAFA3B1D00221A605A60FE
:10020C009A60DA601A610223BB610123BB6210237E
:10021C00FB6200237B6307F11803184603F032FAE4
:10022C000346002B01D000F085F80F237B600023E0
:10023C00BB600023FB6000233B6100237B613B1D03
:10024C000021184603F0A0FC0346002B01D000F05F
:10025C0071F800BF4037BD4680BD000080B500AFCF
:10026C00124B134A1A60114B124A5A600F4B002260
:10027C009A600E4B0022DA600C4B4FF480421A61EC
:10028C000A4B00225A61094B00229A61074B00224B
:10029C00DA61064B00221A62044800F0EDFC0346BA
:1002AC00002B01D000F046F800BF80BD2C000020D0
:1002BC0000540040A086010080B586B000AF07F165
:1002CC00080300221A605A609A60DA60174B9B6927
:1002DC00164A43F004039361144B9B6903F0040327
:1002EC007B607B68114B9B69104A43F00803936158
:1002FC000E4B9B6903F008033B603B680022FC211A
:10030C000B4800F0A1FCFC23BB600123FB60002325
:10031C003B6102237B6107F108031946044800F096
:10032C0017FB00BF1837BD4680BD00BF0010024050
:10033C000008014080B400AF72B600BF00BFFDE7FB
:10034C0080B485B000AF154B9B69144A43F0010390
:10035C009361124B9B6903F00103BB60BB680F4BAD
:10036C00DB690E4A43F08053D3610C4BDB6903F01D
:10037C0080537B607B680A4B5B68FB60FB6823F0F7
:10038C00E063FB60FB6843F08063FB60044AFB683E
:10039C00536000BF1437BD4680BC7047001002404C
:1003AC000000014080B588B000AF786007F1100301
:1003BC0000221A605A609A60DA607B681B681E4AD9
:1003CC00934235D11D4B9B691C4A43F00803936142
:1003DC001A4B9B6903F00803FB60FB68C0233B616D
:1003EC0012237B610023BB610323FB6107F1100324
:1003FC001946134800F0ACFA104BDB690F4A43F472
:10040C000013D3610D4BDB6903F40013BB60BB68B5
:10041C00002200211F2000F0DEF91F2000F0F7F968
:10042C0000220021202000F0D6F9202000F0EFF966
:10043C0000BF2037BD4680BD005400400010024074
:10044C00000C014080B400AF00BFFDE780B400AFEA
:10045C0000BFFDE780B400AF00BFFDE780B400AF84
:10046C0000BFFDE780B400AF00BFFDE780B400AF74
:10047C0000BFBD4680BC704780B400AF00BFBD4616
:10048C0080BC704780B400AF00BFBD4680BC7047D5
:10049C0080B500AF00F088F800BF80BD80B500AF1C
:1004AC00024801F0ABF800BF80BD00BF2C0000205B
:1004BC0080B500AF024801F0F4F900BF80BD00BF69
:1004CC002C00002080B400AF00BFBD4680BC70473C
:1004DC00FFF7F8FF0B480C490C4A002302E0D458F4
:1004EC00C4500433C4188C42F9D3094A094C002374
:1004FC0001E013600432A242FBD304F05FF9FFF772
:10050C001FFE70470000002010000020AC480008BF
:10051C001000002088000020FEE7000080B500AF2E
:10052C00084B1B68074A43F010031360032000F0CC
:10053C0047F90F2000F008F8FFF702FF00231846D8
:10054C0080BD00BF0020024080B582B000AF786053
:10055C00124B1A68124B1B7819464FF47A73B3FB83
:10056C00F1F3B2FBF3F3184600F05FF90346002BEE
:10057C0001D001230EE07B680F2B0AD8002279688A
:10058C004FF0FF3000F027F9064A7B681360002318
:10059C0000E0012318460837BD4680BD040000204A
:1005AC000C0000200800002080B400AF054B1B7825
:1005BC001A46054B1B681344034A136000BFBD4623
:1005CC0080BC70470C0000208400002080B400AF79
:1005DC00024B1B681846BD4680BC70478400002047
:1005EC0080B584B000AF7860FFF7F0FFB8607B682F
:1005FC00FB60FB68B3F1FF3F05D00A4B1B781A4632
:10060C00FB681344FB6000BFFFF7E0FF0246BB68CA
:10061C00D31AFA689A42F7D800BF00BF1037BD460C
:10062C0080BD00BF0C00002080B485B000AF7860A6
:10063C007B6803F00703FB600C4BDB68BB60BA689C
:10064C004FF6FF031340BB60FB681A02BB681343F1
:10065C0043F0BF6343F40033BB60044ABB68D36010
:10066C0000BF1437BD4680BC704700BF00ED00E0F2
:10067C0080B400AF044BDB681B0A03F00703184679
:10068C00BD4680BC704700BF00ED00E080B483B075
:10069C0000AF0346FB7197F90730002B0BDBFB799E
:1006AC0003F01F02064997F907305B09012000FA95
:1006BC0002F241F8232000BF0C37BD4680BC7047C6
:1006CC0000E100E080B483B000AF03463960FB71F9
:1006DC0097F90730002B0ADB3B68DAB20C4997F923
:1006EC0007301201D2B20B4483F800230AE03B68B6
:1006FC00DAB20849FB7903F00F03043B1201D2B2C2
:10070C000B441A7600BF0C37BD4680BC704700BF47
:10071C0000E100E000ED00E080B489B000AFF860CB
:10072C00B9607A60FB6803F00703FB61FB69C3F1F6
:10073C000703042B28BF0423BB61FB690433062B7E
:10074C0002D9FB69033B00E000237B614FF0FF32D1
:10075C00BB6902FA03F3DA43BB681A407B699A401F
:10076C004FF0FF317B6901FA03F3D9437B680B40EF
:10077C00134318462437BD4680BC704780B582B001
:10078C0000AF78607B68013BB3F1807F01D301231C
:10079C000FE00A4A7B68013B53600F214FF0FF309A
:1007AC00FFF790FF054B00229A60044B07221A605A
:1007BC00002318460837BD4680BD00BF10E000E09E
:1007CC0080B582B000AF78607868FFF72DFF00BF6E
:1007DC000837BD4680BD80B586B000AF0346B96012
:1007EC007A60FB7300237B61FFF742FF78617A68C4
:1007FC00B9687869FFF790FF024697F90F301146F8
:10080C001846FFF75FFF00BF1837BD4680BD80B5A7
:10081C0082B000AF0346FB7197F907301846FFF71B
:10082C0035FF00BF0837BD4680BD80B582B000AF34
:10083C0078607868FFF7A2FF034618460837BD4674
:10084C0080BD000080B584B000AF78600023FB73DE
:10085C007B6893F82130DBB2022B05D07B68042235
:10086C009A630123FB7351E07B681B681A687B68F1
:10087C001B6822F00E021A607B681B681A687B6882
:10088C001B6822F001021A607B681B68224A9342A3
:10089C0029D07B681B68214A934222D07B681B6855
:1008AC001F4A93421AD07B681B681E4A934212D08F
:1008BC007B681B681C4A93420AD07B681B681B4AE6
:1008CC00934202D14FF480130EE04FF080730BE093
:1008DC004FF4803308E04FF4805305E04FF48073FD
:1008EC0002E0102300E00123114A53607B680122CF
:1008FC0083F821207B68002283F820207B685B6BC7
:10090C00002B03D07B685B6B78689847FB7B1846A1
:10091C001037BD4680BD00BF080002401C000240DD
:10092C003000024044000240580002406C0002407B
:10093C000000024080B483B000AF78607B6893F80D
:10094C002130DBB218460C37BD4680BC7047000026
:10095C0080B48BB000AF7860396000237B620023D9
:10096C003B6261E101227B6A02FA03F3FB613B68A3
:10097C001B68FA691340BB61BA69FB699A4240F083
:10098C0050813B685B68974A93425ED0954A93428C
:10099C0075D8954A934258D0934A93426FD8934A4C
:1009AC00934252D0914A934269D8914A93424CD087
:1009BC008F4A934263D88F4A934246D08D4A9342D2
:1009CC005DD8122B2AD8122B59D801A252F823F039
:1009DC00570A0008310A0008430A0008850A000873
:1009EC008B0A00088B0A00088B0A00088B0A000887
:1009FC008B0A00088B0A00088B0A00088B0A000877
:100A0C008B0A00088B0A00088B0A00088B0A000866
:100A1C008B0A0008390A00084D0A0008764A9342EE
:100A2C0013D02CE03B68DB683B6229E03B68DB6859
:100A3C0004333B6224E03B68DB6808333B621FE015
:100A4C003B68DB680C333B621AE03B689B68002B0D
:100A5C0002D104233B6213E03B689B68012B05D158
:100A6C0008233B627B68FA691A6109E008233B6240
:100A7C007B68FA695A6103E000233B6200E000BF27
:100A8C00BB69FF2B01D87B6801E07B6804337B6179
:100A9C00BB69FF2B02D87B6A9B0002E07B6A083B98
:100AAC009B003B617B691A680F213B6901FA03F3D8
:100ABC00DB431A40396A3B6901FA03F31A437B6939
:100ACC001A603B685B6803F08053002B00F0A98030
:100ADC004A4B9B69494A43F001039361474B9B691D
:100AEC0003F00103BB60BB68454A7B6A9B08023379
:100AFC0052F82330FB607B6A03F003039B000F2248
:100B0C0002FA03F3DB43FA681340FB607B683D4A4F
:100B1C0093420DD07B683C4A934207D07B683B4A9A
:100B2C00934201D1022304E0032302E0012300E0FD
:100B3C0000237A6A02F0030292009340FA6813438E
:100B4C00FB602F497B6A9B080233FA6841F823202B
:100B5C003B685B6803F48013002B06D02C4B9A681F
:100B6C002B49BB6913438B6006E0294B9A68BB6920
:100B7C00DB43274913408B603B685B6803F400132D
:100B8C00002B06D0224BDA682149BB691343CB609A
:100B9C0006E01F4BDA68BB69DB431D491340CB6091
:100BAC003B685B6803F40033002B06D0184B5A6883
:100BBC001749BB6913434B6006E0154B5A68BB6978
:100BCC00DB43134913404B603B685B6803F4803391
:100BDC00002B1FD00E4B1A680D49BB6913430B60D9
:100BEC001FE000BF00003210000031100000221086
:100BFC000000211000001210000011100010024023
:100C0C000000014000080140000C014000100140B0
:100C1C00000401400B4B1A68BB69DB4309491340C4
:100C2C000B607B6A01337B623B681A687B6A22FA31
:100C3C0003F3002B7FF496AE00BF00BF2C37BD46EC
:100C4C0080BC70470004014080B483B000AF786072
:100C5C000B467B8013467B707B78002B03D07A8805
:100C6C007B681A6103E07B881A047B681A6100BFF9
:100C7C000C37BD4680BC704780B584B000AF78603F
:100C8C007B68002B01D101232BE17B6893F83D306D
:100C9C00DBB2002B06D17B68002283F83C207868FD
:100CAC00FFF780FB7B68242283F83D207B681B6860
:100CBC001A687B681B6822F001021A607B681B684B
:100CCC001A687B681B6842F400421A607B681B68D8
:100CDC001A687B681B6822F400421A6003F09CF8C7
:100CEC00F8607B685B68814A934207D8FB68804A4E
:100CFC00934294BF01230023DBB206E0FB687D4ADC
:100D0C00934294BF01230023DBB2002B01D00123BB
:100D1C00E7E0FB68784AA2FB03239B0CBB607B6873
:100D2C001B685B6823F03F017B681B68BA680A4349
:100D3C005A607B681B681B6A23F03F017B685B6809
:100D4C006A4A934202D8BB68013309E0BB684FF48E
:100D5C00967202FB03F3694AA2FB03239B0901333E
:100D6C007A6812680B4313627B681B68DB6923F497
:100D7C004F4222F0FF027B685B685C498B4219D8BA
:100D8C00FB68591E7B685B685B00B1FBF3F3591C75
:100D9C0040F6FC730B40002B0AD0FB68591E7B6895
:100DAC005B685B00B1FBF3F30133C3F30B0351E05E
:100DBC0004234FE07B689B68002B11D1FB68581E05
:100DCC007B6859680B465B000B44B0FBF3F30133B3
:100DDC00C3F30B03002B0CBF01230023DBB212E087
:100DEC00FB68581E7B6859680B469B000B449900A6
:100DFC000B44B0FBF3F30133C3F30B03002B0CBF19
:100E0C0001230023DBB2002B01D0012322E07B68FD
:100E1C009B68002B0ED1FB68581E7B6859680B46EB
:100E2C005B000B44B0FBF3F30133C3F30B0343F44C
:100E3C0000430FE0FB68581E7B6859680B469B000B
:100E4C000B4499000B44B0FBF3F30133C3F30B03D6
:100E5C0043F44043796809681343CB617B681B6892
:100E6C001B6823F0C0017B68DA697B681B6A1A4334
:100E7C007B681B680A431A607B681B689B6823F4B9
:100E8C00034323F0FF037A6811697A68D26811432F
:100E9C007A6812680B4393607B681B68DB6823F0ED
:100EAC00FF017B685A697B689B691A437B681B68E6
:100EBC000A43DA607B681B681A687B681B6842F01F
:100ECC0001021A607B6800221A647B68202283F876
:100EDC003D207B6800221A637B68002283F83E2049
:100EEC00002318461037BD4680BD00BFA086010008
:100EFC007F841E00FF083D0083DE1B43D34D621030
:100F0C0080B483B000AF78607B681B685B6903F0CA
:100F1C008003802B03D17B681B6800221A6100BF01
:100F2C000C37BD4680BC704780B588B002AFF86006
:100F3C007A601A460B467B8113463B81FFF746FBD2
:100F4C007861FB6893F83D30DBB2202B40F0E080F9
:100F5C007B690093192301227049F86802F010F99B
:100F6C000346002B01D00223D3E0FB6893F83C30FE
:100F7C00012B01D10223CCE0FB68012283F83C2039
:100F8C00FB681B681B6803F00103012B07D0FB688F
:100F9C001B681A68FB681B6842F001021A60FB6848
:100FAC001B681A68FB681B6822F400621A60FB68F5
:100FBC00212283F83D20FB68102283F83E20FB6839
:100FCC0000221A64FB687A685A62FB683A895A856F
:100FDC00FB685B8D9AB2FB681A85FB68504ADA6233
:100FEC0079897B693A6AF86801F0D2FE0346002BD6
:100FFC0001D001238DE000233B61FB681B685B691A
:10100C003B61FB681B689B693B613B6966E07A69E5
:10101C00396AF86802F0CEF90346002B0DD0FB6854
:10102C001B6C042B07D1FB681B681A68FB681B68D8
:10103C0042F400721A6001236BE0FB685B6A1A7859
:10104C00FB681B681A61FB685B6A5A1CFB685A6276
:10105C00FB685B8D9BB2013B9AB2FB685A85FB68BF
:10106C001B8D013B9AB2FB681A85FB681B685B6998
:10107C0003F00403042B1BD1FB681B8D002B17D032
:10108C00FB685B6A1A78FB681B681A61FB685B6A11
:10109C005A1CFB685A62FB685B8D9BB2013B9AB28F
:1010AC00FB685A85FB681B8D013B9AB2FB681A855D
:1010BC007A69396AF86802F0C5F90346002B0DD03D
:1010CC00FB681B6C042B07D1FB681B681A68FB6858
:1010DC001B6842F400721A6001231AE0FB681B8D36
:1010EC00002B94D1FB681B681A68FB681B6842F4E0
:1010FC0000721A60FB68202283F83D20FB680022F6
:10110C0083F83E20FB68002283F83C20002300E09B
:10111C00022318461837BD4680BD00BF02001000E0
:10112C000000FFFF80B58CB002AFF8607A601A4601
:10113C000B467B8113463B8100233B62FFF746FA4B
:10114C007862FB6893F83D30DBB2202B40F04B8289
:10115C007B6A0093192301227F49F86802F010F88A
:10116C000346002B01D002233EE2FB6893F83C308F
:10117C00012B01D1022337E2FB68012283F83C20CA
:10118C00FB681B681B6803F00103012B07D0FB688D
:10119C001B681A68FB681B6842F001021A60FB6846
:1011AC001B681A68FB681B6822F400621A60FB68F3
:1011BC00222283F83D20FB68102283F83E20FB6836
:1011CC0000221A64FB687A685A62FB683A895A856D
:1011DC00FB685B8D9AB2FB681A85FB685F4ADA6222
:1011EC0079897B6A3A6BF86801F054FE0346002B50
:1011FC0001D00123F8E1FB681B8D002B13D10023D8
:10120C00FB61FB681B685B69FB61FB681B689B6986
:10121C00FB61FB69FB681B681A68FB681B6842F47E
:10122C0000721A60CCE1FB681B8D012B1ED1FB6890
:10123C001B681A68FB681B6822F480621A6072B61D
:10124C0000BF0023BB61FB681B685B69BB61FB686B
:10125C001B689B69BB61BB69FB681B681A68FB68F0
:10126C001B6842F400721A6062B635E0FB681B8D95
:10127C00022B1ED1FB681B681A68FB681B6842F4C2
:10128C0000621A6072B600BF00237B61FB681B68AA
:10129C005B697B61FB681B689B697B617B69FB6895
:1012AC001B681A68FB681B6822F480621A6062B6BD
:1012BC0012E0FB681B681A68FB681B6842F48062CA
:1012CC001A6000233B61FB681B685B693B61FB6830
:1012DC001B689B693B613B6972E1FB681B8D032BAF
:1012EC0000F21F81FB681B8D012B23D17A6A396BAD
:1012FC00F86802F021F90346002B01D0012373E1B9
:10130C00FB681B681A69FB685B6AD2B21A70FB68CF
:10131C005B6A5A1CFB685A62FB681B8D013B9AB2D4
:10132C00FB681A85FB685B8D9BB2013B9AB2FB682C
:10133C005A8545E1FB681B8D022B52D17B6A0093C9
:10134C003B6B00220649F86801F01AFF0346002B9C
:10135C0008D0012348E100BF020010000000FFFF8D
:10136C000400010072B600BFFB681B681A68FB68BA
:10137C001B6842F400721A60FB681B681A69FB68F0
:10138C005B6AD2B21A70FB685B6A5A1CFB685A62C1
:10139C00FB681B8D013B9AB2FB681A85FB685B8D61
:1013AC009BB2013B9AB2FB685A8562B600BFFB68E0
:1013BC001B681A69FB685B6AD2B21A70FB685B6ABD
:1013CC005A1CFB685A62FB681B8D013B9AB2FB6886
:1013DC001A85FB685B8D9BB2013B9AB2FB685A8500
:1013EC00EEE07B6A00933B6B00228149F86801F0C8
:1013FC00C7FE0346002B01D00123F5E0FB681B68F8
:10140C001A68FB681B6822F480621A6072B600BF0F
:10141C00FB681B681A69FB685B6AD2B21A70FB68BE
:10142C005B6A5A1CFB685A62FB681B8D013B9AB2C3
:10143C00FB681A85FB685B8D9BB2013B9AB2FB681B
:10144C005A856C4B1B68DB086B4AA2FB03231A0AF8
:10145C0013469B001344DA00D31A3B623B6A013BF0
:10146C003B623B6A002B18D1FB6800221A63FB68B5
:10147C00202283F83D20FB68002283F83E20FB6885
:10148C001B6C43F02002FB681A6462B600BFFB6859
:10149C00002283F83C200123A6E0FB681B685B69F3
:1014AC0003F00403042BD9D1FB681B681A68FB6892
:1014BC001B6842F400721A60FB681B681A69FB68AF
:1014CC005B6AD2B21A70FB685B6A5A1CFB685A6280
:1014DC00FB681B8D013B9AB2FB681A85FB685B8D20
:1014EC009BB2013B9AB2FB685A8562B600BFFB689F
:1014FC001B681A69FB685B6AD2B21A70FB685B6A7C
:10150C005A1CFB685A62FB681B8D013B9AB2FB6844
:10151C001A85FB685B8D9BB2013B9AB2FB685A85BE
:10152C004EE07A6A396BF86802F006F80346002B35
:10153C0001D0012358E0FB681B681A69FB685B6AE1
:10154C00D2B21A70FB685B6A5A1CFB685A62FB6861
:10155C001B8D013B9AB2FB681A85FB685B8D9BB2B5
:10156C00013B9AB2FB685A85FB681B685B6903F008
:10157C000403042B24D1FB681B8D032B07D1FB68C0
:10158C001B681A68FB681B6822F480621A60FB688F
:10159C001B681A69FB685B6AD2B21A70FB685B6ADB
:1015AC005A1CFB685A62FB681B8D013B9AB2FB68A4
:1015BC001A85FB685B8D9BB2013B9AB2FB685A851E
:1015CC00FB681B8D002B7FF488AEFB68202283F810
:1015DC003D20FB68002283F83E20FB68002283F844
:1015EC003C20002300E0022318462837BD4680BD6E
:1015FC00040001000400002089B5F81480B588B0FF
:10160C0000AF78600023BB617B681B685B687B6103
:10161C007B68DB6A3B617B6893F83E30FB737B68CD
:10162C0093F83D30BB73FB7B102B03D0FB7B402B23
:10163C0040F0B1807B681B689B69BB617B681B6851
:10164C005B69FB61FB6903F00103002B0DD13B6966
:10165C00B3F52A0F03D03B69B3F12A4F01D1012313
:10166C0000E00023012B00F01481FB6903F001035F
:10167C00002B0BD07B6903F40073002B06D0786829
:10168C0001F0E5FF786800F060FD83E0FB6903F092
:10169C000803002B08D07B6903F40073002B03D0E4
:1016AC00786800F0D7FD75E0FB6903F00203002BAE
:1016BC0008D07B6903F40073002B03D0786800F02A
:1016CC00F2FD67E0BB6903F00403002B36D07B68A6
:1016DC001B685B6803F40063B3F5006F00F0DB80FC
:1016EC00FB6903F08003002B0DD07B6903F480634E
:1016FC00002B08D0FB6903F00403002B03D178689E
:10170C0000F0D4F946E0FB6903F00403002B00F071
:10171C00C2807B6903F40073002B00F0BC80BB7BA0
:10172C00212B03D1786800F05DFAB4E0FB7B402BF1
:10173C0040F0B180786800F0CBFAACE07B681B68B5
:10174C005B6803F40063B3F5006F00F0A480FB69E1
:10175C0003F04003002B0DD07B6903F48063002B56
:10176C0008D0FB6903F00403002B03D1786800F068
:10177C0047FB0FE0FB6903F00403002B00F08B80A8
:10178C007B6903F40073002B00F08580786800F00F
:10179C00F2FB80E07FE07B681B6C002B04D07B6845
:1017AC001B685B69FB6107E07B681B689B69BB611D
:1017BC007B681B685B69FB61FB6903F00203002B10
:1017CC0011D07B6903F40073002B0CD07B681B6C6D
:1017DC00002B03D07B681B689B69BB61B969786877
:1017EC0000F0B8FF5AE0FB6903F01003002B08D09F
:1017FC007B6903F40073002B03D0786800F0F2FFD0
:10180C004CE0BB7B212B02D0BB7B292B20D1FB696D
:10181C0003F08003002B0DD07B6903F48063002B55
:10182C0008D0FB6903F00403002B03D1786800F0A7
:10183C00D5FE32E0FB6903F00403002B2DD07B694D
:10184C0003F40073002B28D0786800F004FF24E028
:10185C00FB6903F04003002B0DD07B6903F480631C
:10186C00002B08D0FB6903F00403002B03D178682C
:10187C0000F011FF12E0FB6903F00403002B0DD004
:10188C007B6903F40073002B08D0786800F041FFEB
:10189C0004E000BF02E000BF00E000BF2037BD46FF
:1018AC0080BD80B58AB000AF78607B681B685B69CF
:1018BC003B627B681B685B68FB6100237B627B6817
:1018CC0093F83E30FB763B6A03F48073002B15D003
:1018DC00FB6903F48073002B10D07B6A43F0010387
:1018EC007B627B681B686FF480725A617B681B6833
:1018FC001A687B681B6842F400421A603B6A03F466
:10190C000073002B0DD0FB6903F48073002B08D0FF
:10191C007B6A43F002037B627B681B686FF4007286
:10192C005A613B6A03F48063002B3ED0FB6903F4DD
:10193C008073002B39D0FB7EBB767B685B8D9BB2B2
:10194C007B617B6893F83D30FB747B681B6BFB60A1
:10195C00BB7E202B12D17B69002B0FD1FB7C212B62
:10196C0008D0FB7C292B05D0FB7C282B06D1FB68EF
:10197C00212B03D1786801F065F816E07B681B68B1
:10198C006FF480625A617B6A43F004037B62FB7ED6
:10199C00102B02D0FB7E402B07D17B681B681A688A
:1019AC007B681B6842F400721A603B6A03F40063A4
:1019BC00002B0DD0FB6903F48073002B08D07B6ADD
:1019CC0043F008037B627B681B686FF400625A610A
:1019DC007B6A002B08D07B681A6C7B6A1A437B6885
:1019EC001A64786801F0A2F800BF2837BD4680BDA4
:1019FC0080B483B000AF786000BF0C37BD4680BCAC
:101A0C00704780B483B000AF786000BF0C37BD4620
:101A1C0080BC704780B483B000AF786000BF0C37D7
:101A2C00BD4680BC704780B483B000AF786000BF07
:101A3C000C37BD4680BC704780B483B000AF786073
:101A4C000B46FB7013463B8000BF0C37BD4680BC79
:101A5C00704780B483B000AF786000BF0C37BD46D0
:101A6C0080BC704780B483B000AF786000BF0C3787
:101A7C00BD4680BC704780B483B000AF786000BFB7
:101A8C000C37BD4680BC704780B483B000AF786023
:101A9C0000BF0C37BD4680BC704780B483B000AF2C
:101AAC00786000BF0C37BD4680BC704780B584B0F1
:101ABC0000AF78607B6893F83D30FB737B6893F8DC
:101ACC003E30BB737B68DB6ABB607B681B8D002B75
:101ADC0050D1FB7B212B4DD1BB68082B1DD0BB6893
:101AEC00202B1AD0BB6813F5803F16D07B681B687F
:101AFC005A687B681B6822F4E0625A607B6811228A
:101B0C001A637B68002283F83E207B68202283F8CE
:101B1C003D207868FFF76CFF60E07B681B685A68B3
:101B2C007B681B6822F4E0625A607B681B681A6849
:101B3C007B681B6842F400721A607B6800221A638F
:101B4C007B68202283F83D207B6893F83E30DBB223
:101B5C00402B07D17B68002283F83E207868FFF782
:101B6C0081FF3BE07B68002283F83E207868FFF71A
:101B7C003FFF33E0FB7B212B05D0BB7B402B2DD1D2
:101B8C00FB7B222B2AD17B685B8D9BB2002B08D16F
:101B9C007B681B685A687B681B6822F480625A60F9
:101BAC001CE07B6893F83E30DBB2402B03D17868A5
:101BBC0000F08EF812E07B685B6A1A787B681B6811
:101BCC001A617B685B6A5A1C7B685A627B685B8D06
:101BDC009BB2013B9AB27B685A85FFE700BF103776
:101BEC00BD4680BD80B584B000AF78607B68DB6A91
:101BFC00FB607B6893F83D30DBB2212B64D17B68B2
:101C0C005B8D9BB2002B12D07B685B6A1A787B6869
:101C1C001B681A617B685B6A5A1C7B685A627B681A
:101C2C005B8D9BB2013B9AB27B685A854CE0FB689A
:101C3C00082B1DD0FB68202B1AD0FB6813F5803FB6
:101C4C0016D07B681B685A687B681B6822F4E062BC
:101C5C005A607B6811221A637B68002283F83E204D
:101C6C007B68202283F83D207868FFF7C1FE2BE0CB
:101C7C007B681B685A687B681B6822F4E0625A60B8
:101C8C007B681B681A687B681B6842F400721A60D8
:101C9C007B6800221A637B68202283F83D207B68D6
:101CAC0093F83E30DBB2402B07D17B68002283F8DF
:101CBC003E207868FFF7D6FE06E07B68002283F8AA
:101CCC003E207868FFF794FE00BF1037BD4680BDFC
:101CDC0080B584B000AF78607B6893F83D30FB73BF
:101CEC007B681B6D002B1DD17B68DB6C012B0BD132
:101CFC007B689B6CDAB27B681B681A617B681B6D16
:101D0C009A1C7B681A6577E07B689B6C9BB21B12F4
:101D1C00DAB27B681B681A617B681B6D5A1C7B6886
:101D2C001A6569E07B681B6D012B0BD17B689B6C82
:101D3C00DAB27B681B681A617B681B6D5A1C7B6866
:101D4C001A6559E07B681B6D022B52D1FB7B222B51
:101D5C000DD17B681B681A687B681B6842F4807223
:101D6C001A607B681B6D5A1C7B681A6544E07B68A3
:101D7C005B8D9BB2002B15D0FB7B212B12D17B688A
:101D8C005B6A1A787B681B681A617B685B6A5A1CF1
:101D9C007B685A627B685B8D9BB2013B9AB27B6815
:101DAC005A8529E07B685B8D9BB2002B24D1FB7B91
:101DBC00212B21D17B681B685A687B681B6822F435
:101DCC00E0625A607B681B681A687B681B6842F487
:101DDC0000721A607B6800221A637B68202283F8E9
:101DEC003D207B68002283F83E207868FFF73AFE9E
:101DFC0002E07868FFF784F800BF1037BD4680BD5D
:101E0C0080B584B000AF78607B6893F83D30DBB26E
:101E1C00222B40F0AC807B685B8D9BB2FB60FB6837
:101E2C00032B21D97B681B681A697B685B6AD2B269
:101E3C001A707B685B6A5A1C7B685A627B685B8D84
:101E4C009BB2013B9AB27B685A857B685B8D9BB2D7
:101E5C00032B40F08C807B681B685A687B681B687E
:101E6C0022F480625A6082E07B68DB6A022B75D0B8
:101E7C00FB68012B02D0FB68002B6FD1786801F056
:101E8C0029FB0346002B42D17B681B681A687B68D0
:101E9C001B6822F480621A607B681B685A687B6836
:101EAC001B6822F4E0625A607B681B681A697B68C5
:101EBC005B6AD2B21A707B685B6A5A1C7B685A6286
:101ECC007B685B8D9BB2013B9AB27B685A857B68C1
:101EDC00202283F83D207B6893F83E30DBB2402B08
:101EEC000AD17B68002283F83E207B6800221A63AB
:101EFC007868FFF7C0FD3AE07B68002283F83E204B
:101F0C007B6812221A637868FFF77BFD2FE07B68F1
:101F1C001B685A687B681B6822F4E0625A607B6815
:101F2C001B681A697B685B6AD2B21A707B685B6A41
:101F3C005A1C7B685A627B685B8D9BB2013B9AB2E0
:101F4C007B685A857B68202283F83D207B680022C1
:101F5C0083F83E207868FFF797FD08E07B681B68E4
:101F6C005A687B681B6822F480625A60FFE700BFE6
:101F7C001037BD4680BD80B584B000AF78607B68FB
:101F8C00DB6AFB607B685B8D9BB2042B1BD17B688F
:101F9C001B685A687B681B6822F480625A607B68F5
:101FAC001B681A697B685B6AD2B21A707B685B6AC1
:101FBC005A1C7B685A627B685B8D9BB2013B9AB260
:101FCC007B685A85BDE07B685B8D9BB2032B29D166
:101FDC007B681B685A687B681B6822F480625A60B5
:101FEC00FB68042B0AD0FB68022B07D07B681B68AC
:101FFC001A687B681B6822F480621A607B681B6815
:10200C001A697B685B6AD2B21A707B685B6A5A1C6D
:10201C007B685A627B685B8D9BB2013B9AB27B6892
:10202C005A858EE07B685B8D9BB2022B76D1FB6868
:10203C00012B02D0FB68102B08D17B681B681A6837
:10204C007B681B6822F480621A6019E0FB68042B21
:10205C0002D0FB68022B08D17B681B681A687B686E
:10206C001B6842F480621A600AE0FB68102B07D0F0
:10207C007B681B681A687B681B6842F400721A60E4
:10208C007B681B681A697B685B6AD2B21A707B68C2
:10209C005B6A5A1C7B685A627B685B8D9BB2013B06
:1020AC009AB27B685A857B681B681A697B685B6A85
:1020BC00D2B21A707B685B6A5A1C7B685A627B6866
:1020CC005B8D9BB2013B9AB27B685A857B681B681F
:1020DC005A687B681B6822F440725A607B68202225
:1020EC0083F83D207B6893F83E30DBB2402B0AD15D
:1020FC007B68002283F83E207B6800221A63786894
:10210C00FFF7B9FC1DE07B68002283F83E207B685A
:10211C0012221A637868FFF774FC12E07B681B6864
:10212C001A697B685B6AD2B21A707B685B6A5A1C4C
:10213C007B685A627B685B8D9BB2013B9AB27B6871
:10214C005A8500BF1037BD4680BD80B483B000AF48
:10215C0078607B6893F83E30DBB2402B17D17B68FC
:10216C001B6D002B09D17B685B6CDBB21A467B685C
:10217C001B6802F0FE021A6167E07B685B6CDBB2E5
:10218C0043F00103DAB27B681B681A615DE07B687F
:10219C001B69B3F5804F33D17B6893F83D30DBB2CC
:1021AC00212B09D17B685B6CDBB21A467B681B6800
:1021BC0002F0FE021A6108E07B685B6CDBB243F054
:1021CC000103DAB27B681B681A617B685B6B002BBE
:1021DC0004D07B685B6B9B6A002B08D17B689B6B84
:1021EC00002B32D07B689B6B9B6A002B2DD07B68BD
:1021FC001B685A687B681B6842F400625A6024E0D2
:10220C007B681B6D002B0ED17B685B6C9BB2DB116A
:10221C00DBB203F00603DBB263F00F03DAB27B68C8
:10222C001B681A6111E07B681B6D012B0DD17B685B
:10223C005B6C9BB2DB11DBB203F00603DBB263F029
:10224C000E03DAB27B681B681A6100BF0C37BD46FF
:10225C0080BC704780B483B000AF78607B685B6CE7
:10226C00DAB27B681B681A617B685B6B002B04D04D
:10227C007B685B6B9B6A002B08D17B689B6B002B8C
:10228C000CD07B689B6B9B6A002B07D07B681B6810
:10229C005A687B681B6842F400625A6000BF0C37B6
:1022AC00BD4680BC704780B491B000AF78607B684D
:1022BC0093F83E3087F83F307B68DB6ABB637B6802
:1022CC001B6B7B637B6893F83D30DBB2222B40F0B9
:1022DC0074817B681B6D002B0FD197F83F30402B1E
:1022EC000BD100233B637B681B685B693B637B689A
:1022FC001B689B693B633B6B6BE17B681B6D002B25
:10230C001DD17B681B69B3F5404F18D10023FB62CC
:10231C007B681B685B69FB627B681B689B69FB6263
:10232C00FB6A7B681B681A687B681B6842F48072C6
:10233C001A607B681B6D5A1C7B681A6549E17B68C7
:10234C005B8D9BB2002B13D10023BB627B681B6897
:10235C005B69BB627B681B689B69BB62BB6A7B6801
:10236C001B681A687B681B6842F400721A6020E1D3
:10237C007B685B8D9BB2012B40F08A80BB6B13F5A5
:10238C00803F37D17B681B681A687B681B6822F416
:10239C0080621A607B681B685B6803F40063B3F5AA
:1023AC00006F13D17B681B681A687B681B6822F46A
:1023BC0080621A6000237B627B681B685B697B62AE
:1023CC007B681B689B697B627B6AF2E000233B6243
:1023DC007B681B685B693B627B681B689B693B6223
:1023EC003B6A7B681B681A687B681B6842F4007246
:1023FC001A60DEE0BB6B082B2ED0BB6B202B2BD0D6
:10240C007B6B122B02D1BB6B012B25D1BB6B042B2D
:10241C000ED0BB6B022B0BD0BB6B102B08D07B6888
:10242C001B681A687B681B6822F480621A6007E0DC
:10243C007B681B681A687B681B6842F480621A60B0
:10244C000023FB617B681B685B69FB617B681B6815
:10245C009B69FB61FB69ACE07B681B681A687B6855
:10246C001B6822F480621A600023BB617B681B68C6
:10247C005B69BB617B681B689B69BB61BB697B68E3
:10248C001B681A687B681B6842F400721A6090E043
:10249C007B685B8D9BB2022B58D1BB6B042B21D07C
:1024AC00BB6B022B1ED0BB6B102B1BD07B681B682D
:1024BC001A687B681B6842F400621A6000237B6117
:1024CC007B681B685B697B617B681B689B697B61B4
:1024DC007B697B681B681A687B681B6822F48062C6
:1024EC001A6012E07B681B681A687B681B6842F4F0
:1024FC0080621A6000233B617B681B685B693B61EF
:10250C007B681B689B693B613B697B681B685B68EC
:10251C0003F40063B3F5006F4BD1BB6B13F5803F35
:10252C000BD0BB6B012B08D0BB6B082B05D0BB6B46
:10253C00102B02D0BB6B202B3BD17B681B685A68DD
:10254C007B681B6842F480525A6032E07B681B68DF
:10255C001A687B681B6842F480621A607B681B688F
:10256C005B6803F40063B3F5006F17D1BB6B13F515
:10257C00803F0BD0BB6B012B08D0BB6B082B05D05D
:10258C00BB6B102B02D0BB6B202B07D17B681B685D
:10259C005A687B681B6842F480525A600023FB60C7
:1025AC007B681B685B69FB607B681B689B69FB60D5
:1025BC00FB687B6800221A650BE00023BB607B681C
:1025CC001B685B69BB607B681B689B69BB60BB68F5
:1025DC00FFE700BF4437BD4680BC704780B584B070
:1025EC0000AF78607B6893F83D30FB737B685B8D44
:1025FC009BB2002B2BD07B685B6A1A787B681B68BC
:10260C001A617B685B6A5A1C7B685A627B685B8DBB
:10261C009BB2013B9AB27B685A857B685B8D9BB2FF
:10262C00002B14D1FB7B292B11D17B681B685A68BA
:10263C007B681B6822F480625A607B6821221A63D3
:10264C007B68282283F83D207868FFF7E3F900BF08
:10265C001037BD4680BD80B483B000AF78607B6816
:10266C005B8D9BB2002B11D07B685B6A1A787B6800
:10267C001B681A617B685B6A5A1C7B685A627B68B0
:10268C005B8D9BB2013B9AB27B685A8500BF0C37BD
:10269C00BD4680BC704780B584B000AF78607B6865
:1026AC0093F83D30FB737B685B8D9BB2002B2CD079
:1026BC007B681B681A697B685B6AD2B21A707B688C
:1026CC005B6A5A1C7B685A627B685B8D9BB2013BD0
:1026DC009AB27B685A857B685B8D9BB2002B14D1B8
:1026EC00FB7B2A2B11D17B681B685A687B681B68A3
:1026FC0022F480625A607B6822221A637B6828224B
:10270C0083F83D207868FFF78EF900BF1037BD467F
:10271C0080BD80B483B000AF78607B685B8D9BB26A
:10272C00002B12D07B681B681A697B685B6AD2B27B
:10273C001A707B685B6A5A1C7B685A627B685B8D7B
:10274C009BB2013B9AB27B685A8500BF0C37BD46E1
:10275C0080BC704780B584B000AF786039600023CE
:10276C00FB737B6893F83D30DBB203F02803282B16
:10277C0025D17B681B685A687B681B6822F48062D1
:10278C005A603B6803F00403002B01D10123FB7357
:10279C003B6803F08003002B03D17B68DB68BB81B3
:1027AC0002E07B689B69BB817B68002283F83C203C
:1027BC00BA89FB7B19467868FFF73EF90EE00023D7
:1027CC00BB607B681B685B69BB607B681B689B6933
:1027DC00BB60BB687B68002283F83C2000BF1037CD
:1027EC00BD4680BD80B584B000AF78607B6893F83F
:1027FC003D30FB737B681B685A687B681B6822F44E
:10280C00E0625A600023BB607B681B685B69BB603D
:10281C007B681B681A687B681B6842F001021A60AF
:10282C00BB687B681B681A687B681B6822F4806233
:10283C001A607B681B685B6803F40063B3F5006F78
:10284C0072D1FB7B222B02D0FB7B2A2B35D17B68F0
:10285C009B6B1B685B689AB27B685A857B685B8D47
:10286C009BB2002B05D07B681B6C43F004027B6889
:10287C001A647B681B685A687B681B6822F40062C8
:10288C005A607B689B6B1846FEF754F80346012B85
:10289C0049D07B689B6B694A5A637B689B6B184673
:1028AC00FDF7D0FF0346002B3DD07B689B6B5B6B29
:1028BC007A68926B1046984735E07B685B6B1B68B7
:1028CC005B689AB27B685A857B685B8D9BB2002BE8
:1028DC0005D07B681B6C43F004027B681A647B6830
:1028EC001B685A687B681B6822F400625A607B681C
:1028FC005B6B1846FEF71EF80346012B14D07B6861
:10290C005B6B4E4A5A637B685B6B1846FDF79AFF0C
:10291C000346002B08D07B685B6B5B6B7A68526B51
:10292C001046984700E000BF7B685B8D9BB2002B84
:10293C003ED07B681B685B6903F00403042B12D147
:10294C007B681B681A697B685B6AD2B21A707B68F9
:10295C005B6A5A1C7B685A627B685B8D9BB2013B3D
:10296C009AB27B685A857B681B685B6903F04003ED
:10297C00402B12D17B681B681A697B685B6AD2B2E8
:10298C001A707B685B6A5A1C7B685A627B685B8D29
:10299C009BB2013B9AB27B685A857B685B8D9BB27C
:1029AC00002B05D07B681B6C43F004027B681A6417
:1029BC007B681B6C002B03D0786800F0B7F839E00B
:1029CC00FB7B2A2B09D17B6800221A637B682822A7
:1029DC0083F83D207868FFF726F87B6893F83D3044
:1029EC00DBB2282B11D17B68154ADA627B68002296
:1029FC001A637B68202283F83D207B68002283F8D1
:102A0C003E207868FFF725F814E07B681B6B222BBF
:102A1C0002D0FB7B222B0DD17B6800221A637B68D2
:102A2C00202283F83D207B68002283F83E207868C2
:102A3C00FEF7F9FF00BF1037BD4680BD3D300008E2
:102A4C000000FFFF80B584B000AF78607B6893F81E
:102A5C003D30FB737B68DB6ABB60BB68082B02D024
:102A6C00BB68202B29D1FB7B282B26D17B682E4AD7
:102A7C00DA627B681B685A687B681B6822F4E06228
:102A8C005A607B681B686FF480625A617B681B68B4
:102A9C001A687B681B6822F480621A607B680022CB
:102AAC001A637B68202283F83D207B68002283F820
:102ABC003E207868FEF7CDFF31E0FB7B212B29D13E
:102ACC007B68194ADA627B6821221A637B682022B0
:102ADC0083F83D207B68002283F83E207B681B68CE
:102AEC005A687B681B6822F4E0625A607B681B683A
:102AFC006FF480625A617B681B681A687B681B687C
:102B0C0022F480621A607868FEF7FAF97868FEF7AA
:102B1C0081FF04E07B681B686FF480625A6100BF20
:102B2C001037BD4680BD00BF0000FFFF80B584B0EC
:102B3C0000AF78607B6893F83D30FB737B6893F84B
:102B4C003E30BB73BB7B102B02D0BB7B402B0AD11E
:102B5C00FB7B222B07D17B681B681A687B681B6880
:102B6C0022F400621A60FB7B03F02803282B07D1A8
:102B7C007B6800221A637B68282283F83D2015E0CD
:102B8C007B681B685B6803F40063B3F5006F0AD0C5
:102B9C00FB7B602B07D07B68202283F83D207B6871
:102BAC00002283F83E207B6800221A637B681B6836
:102BBC005B6803F40063B3F5006F62D17B681B683C
:102BCC005A687B681B6822F400625A607B685B6BF6
:102BDC0093F82130DBB2012B20D07B685B6B6A4A07
:102BEC005A637B685B6B1846FDF72CFE0346002B83
:102BFC0000F089807B681B681A687B681B6822F070
:102C0C0001021A607B68202283F83D207B685B6B95
:102C1C005B6B7A68526B1046984774E07B689B6BD1
:102C2C00594A5A637B689B6B1846FDF70BFE0346AB
:102C3C00002B68D07B681B685B6903F04003402B5A
:102C4C000BD17B681B681A697B685B6AD2B21A70FD
:102C5C007B685B6A5A1C7B685A627B681B681A68C3
:102C6C007B681B6822F001021A607B68202283F8C3
:102C7C003D207B689B6B5B6B7A68926B1046984728
:102C8C0041E07B6893F83D30DBB2602B25D17B684B
:102C9C00202283F83D207B6800221A647B681B6825
:102CAC005B6903F04003402B0BD17B681B681A69EE
:102CBC007B685B6AD2B21A707B685B6A5A1C7B6851
:102CCC005A627B681B681A687B681B6822F00102D9
:102CDC001A607868FEF7E1FE15E07B681B685B699B
:102CEC0003F04003402B0BD17B681B681A697B688F
:102CFC005B6AD2B21A707B685B6A5A1C7B685A6238
:102D0C007868FEF7C1FE7B681B6CBB60BB6803F088
:102D1C000103002B0ED1BB6803F00203002B09D179
:102D2C00BB6803F00403002B04D1BB6803F0080359
:102D3C00002B07D07B681B685A687B681B6822F4E1
:102D4C00E0625A607B6893F83D30FB737B681B6CC8
:102D5C0003F00403042B13D1FB7B282B10D17B68CD
:102D6C000A4ADA627B6800221A637B68202283F8A5
:102D7C003D207B68002283F83E207868FEF769FED0
:102D8C0000BF1037BD4680BD3D3000080000FFFF7E
:102D9C0080B588B002AFF8607A603B600B467B81EF
:102DAC00FB68DB6A7B617B69082B06D07B69012B96
:102DBC0003D07B6913F5803F08D1FB681B681A6848
:102DCC00FB681B6842F480721A600BE0FB681B6B9B
:102DDC00122B07D1FB681B681A68FB681B6842F44E
:102DEC0080721A603B6800937B6800224FF00111DF
:102DFC00F86800F0C5F90346002B0DD0FB681B6882
:102E0C001B6803F48073B3F5807F03D1FB684FF428
:102E1C0000721A64032335E0FB681B69B3F5804F1D
:102E2C0008D17B89DBB21A46FB681B6802F0FE02F4
:102E3C001A611BE07B89DB11DBB203F00603DBB20A
:102E4C0063F00F03DAB2FB681B681A613B687A689F
:102E5C000E49F86800F00EFA0346002B01D001234E
:102E6C0010E07B89DAB2FB681B681A613B687A68F0
:102E7C000749F86800F0FEF90346002B01D0012346
:102E8C0000E0002318461837BD4680BD080001003D
:102E9C000200010080B588B002AFF8607A603B6038
:102EAC000B467B81FB68DB6A7B61FB681B681A68DD
:102EBC00FB681B6842F480621A607B69082B06D0A1
:102ECC007B69012B03D07B6913F5803F08D1FB682C
:102EDC001B681A68FB681B6842F480721A600BE06E
:102EEC00FB681B6B112B07D1FB681B681A68FB680E
:102EFC001B6842F480721A603B6800937B68002266
:102F0C004FF00111F86800F03BF90346002B0DD08F
:102F1C00FB681B681B6803F48073B3F5807F03D1D7
:102F2C00FB684FF400721A64032379E0FB681B6999
:102F3C00B3F5804F08D17B89DBB243F00103DAB2E1
:102F4C00FB681B681A615FE07B89DB11DBB203F065
:102F5C000603DBB263F00F03DAB2FB681B681A617D
:102F6C003B687A683049F86800F084F90346002B16
:102F7C0001D0012354E07B89DAB2FB681B681A612B
:102F8C003B687A682949F86800F074F90346002B0D
:102F9C0001D0012344E000233B61FB681B685B69A3
:102FAC003B61FB681B689B693B613B69FB681B6869
:102FBC001A68FB681B6842F480721A603B680093C5
:102FCC007B6800224FF00111F86800F0D9F8034635
:102FDC00002B0DD0FB681B681B6803F48073B3F5E2
:102FEC00807F03D1FB684FF400721A64032317E04F
:102FFC007B89DB11DBB203F00603DBB263F00E035B
:10300C00DAB2FB681B681A613B687A680749F86892
:10301C0000F030F90346002B01D0012300E000231F
:10302C0018461837BD4680BD08000100020001009B
:10303C0080B586B000AF78600023FB607B685B6A6C
:10304C007B617B6993F83D30FB744B4B1B68DB0851
:10305C004A4AA2FB03231A0A13469B001344DA00C4
:10306C00D31AFB60FB68002B06D17B691B6C43F009
:10307C0020027B691A640AE0FB68013BFB607B69F8
:10308C001B681B6803F40073B3F5007FEAD07B69FF
:10309C005B6B002B03D07B695B6B00229A627B69B4
:1030AC009B6B002B03D07B699B6B00229A627B6924
:1030BC001B681A687B691B6822F480621A607B6942
:1030CC0000225A857B695B6B002B03D07B695B6BA1
:1030DC0000225A637B699B6B002B03D07B699B6B33
:1030EC0000225A637B691B681A687B691B6822F093
:1030FC0001021A607B6993F83D30DBB2602B0ED174
:10310C007B69202283F83D207B69002283F83E20D6
:10311C007B6900221A647869FEF7BFFC27E0FB7C10
:10312C0003F02803282B17D17B691B681A687B696D
:10313C001B6842F001021A607B691B681A687B6984
:10314C001B6842F480621A607B6900221A637B69F7
:10315C00282283F83D2007E07B69202283F83D205C
:10316C007B69002283F83E207869FEF78DFC00BF56
:10317C001837BD4680BD00BF0400002089B5F81487
:10318C0080B584B000AFF860B9603B601346FB714A
:10319C0048E03B68B3F1FF3F44D0FDF717FA024615
:1031AC00BB69D31A3A689A4202D33B68002B39D1D7
:1031BC00BB681B0CDBB2012B0DD1FB681B685B6978
:1031CC00DA43BB6813409BB2002B0CBF01230023D6
:1031DC00DBB21A460CE0FB681B689B69DA43BB68E0
:1031EC0013409BB2002B0CBF01230023DBB21A4609
:1031FC00FB799A4216D1FB6800221A63FB682022E5
:10320C0083F83D20FB68002283F83E20FB681B6C92
:10321C0043F02002FB681A64FB68002283F83C2010
:10322C00012323E0BB681B0CDBB2012B0DD1FB6827
:10323C001B685B69DA43BB6813409BB2002B0CBF65
:10324C0001230023DBB21A460CE0FB681B689B6968
:10325C00DA43BB6813409BB2002B0CBF0123002345
:10326C00DBB21A46FB799A4293D0002318461037EA
:10327C00BD4680BD80B584B000AFF860B9607A609F
:10328C003B6071E0FB681B685B6903F48063B3F51A
:10329C00806F23D1FB681B681A68FB681B6842F4BB
:1032AC0000721A60FB681B686FF480625A61FB68DD
:1032BC0000221A63FB68202283F83D20FB68002261
:1032CC0083F83E20FB681B6C43F00402FB681A6415
:1032DC00FB68002283F83C20012367E07B68B3F194
:1032EC00FF3F41D0FDF772F902463B68D31A7A686A
:1032FC009A4202D37B68002B36D1BB681B0CDBB225
:10330C00012B0CD1FB681B685B69DA43BB6813406B
:10331C009BB2002B14BF01230023DBB20BE0FB6834
:10332C001B689B69DA43BB6813409BB2002B14BF2C
:10333C0001230023DBB2002B16D0FB6800221A639A
:10334C00FB68202283F83D20FB68002283F83E2096
:10335C00FB681B6C43F02002FB681A64FB680022BC
:10336C0083F83C20012321E0BB681B0CDBB2012B52
:10337C000CD1FB681B685B69DA43BB6813409BB2DA
:10338C00002B14BF01230023DBB20BE0FB681B688E
:10339C009B69DA43BB6813409BB2002B14BF01231B
:1033AC000023DBB2002B7FF46DAF002318461037DF
:1033BC00BD4680BD80B584B000AFF860B9607A605E
:1033CC0034E0F86800F015F90346002B01D0012316
:1033DC0034E0BB68B3F1FF3F28D0FDF7F7F80246A5
:1033EC007B68D31ABA689A4202D3BB68002B1DD1F2
:1033FC00FB681B685B6903F08003802B16D0FB68AD
:10340C0000221A63FB68202283F83D20FB6800220F
:10341C0083F83E20FB681B6C43F02002FB681A64A7
:10342C00FB68002283F83C20012307E0FB681B6843
:10343C005B6903F08003802BC3D10023184610373F
:10344C00BD4680BD80B584B000AFF860B9607A60CD
:10345C0034E0F86800F0CDF80346002B01D00123CE
:10346C0034E0BB68B3F1FF3F28D0FDF7AFF802465C
:10347C007B68D31ABA689A4202D3BB68002B1DD161
:10348C00FB681B685B6903F00403042B16D0FB6814
:10349C0000221A63FB68202283F83D20FB6800227F
:1034AC0083F83E20FB681B6C43F02002FB681A6417
:1034BC00FB68002283F83C20012307E0FB681B68B3
:1034CC005B6903F00403042BC3D1002318461037A7
:1034DC00BD4680BD80B485B000AF78600023FB6032
:1034EC00134B1B68DB08134AA2FB03231A0A13466F
:1034FC009B001344FB60FB68013BFB60FB68002BEB
:10350C0007D17B681B6C43F020027B681A64012393
:10351C0008E07B681B681B6803F40073B3F5007F3D
:10352C00E9D0002318461437BD4680BC704700BF55
:10353C000400002089B5F81480B584B000AFF860A1
:10354C00B9607A6049E0FB681B685B6903F01003A3
:10355C00102B19D1FB681B686FF010025A61FB68C5
:10356C0000221A63FB68202283F83D20FB680022AE
:10357C0083F83E20FB681A6CFB681A64FB68002217
:10358C0083F83C20012330E0FDF720F802467B68ED
:10359C00D31ABA689A4202D3BB68002B1DD1FB68C0
:1035AC001B685B6903F04003402B16D0FB680022BC
:1035BC001A63FB68202283F83D20FB68002283F805
:1035CC003E20FB681B6C43F02002FB681A64FB680E
:1035DC00002283F83C20012307E0FB681B685B6931
:1035EC0003F04003402BAED1002318461037BD46E4
:1035FC0080BD80B483B000AF78607B681B685B696A
:10360C0003F48063B3F5806F1BD17B681B686FF488
:10361C0080625A617B6800221A637B68202283F8DF
:10362C003D207B68002283F83E207B681B6C43F0B6
:10363C0004027B681A647B68002283F83C20012317
:10364C0000E0002318460C37BD4680BC704780B4A0
:10365C0083B000AF78607B68DB6AB3F52A0F03D1C7
:10366C007B680122DA6207E07B68DB6AB3F12A4FE0
:10367C0002D17B680822DA6200BF0C37BD4680BCE1
:10368C007047000080B586B000AF78607B68002B77
:10369C0001D1012372E27B681B6803F00103002B4C
:1036AC0000F08780924B5B6803F00C03042B0CD06A
:1036BC008F4B5B6803F00C03082B12D18C4B5B68AF
:1036CC0003F48033B3F5803F0BD1894B1B6803F4B3
:1036DC000033002B6CD07B685B68002B68D1012316
:1036EC004CE27B685B68B3F5803F06D1804B1B686E
:1036FC007F4A43F4803313602EE07B685B68002BB9
:10370C000CD17B4B1B687A4A23F480331360784BC3
:10371C001B68774A23F4802313601DE07B685B6889
:10372C00B3F5A02F0CD1724B1B68714A43F4802364
:10373C0013606F4B1B686E4A43F4803313600BE0CD
:10374C006B4B1B686A4A23F480331360684B1B680D
:10375C00674A23F4802313607B685B68002B13D0CB
:10376C00FCF734FF386108E0FCF730FF02463B6998
:10377C00D31A642B01D9032300E25D4B1B6803F4BD
:10378C000033002BF0D014E0FCF720FF386108E088
:10379C00FCF71CFF02463B69D31A642B01D90323A7
:1037AC00ECE1534B1B6803F40033002BF0D100E029
:1037BC0000BF7B681B6803F00203002B63D04C4BEB
:1037CC005B6803F00C03002B0BD0494B5B6803F0D8
:1037DC000C03082B1CD1464B5B6803F48033002B85
:1037EC0016D1434B1B6803F00203002B05D07B68FA
:1037FC001B69012B01D00123C0E13D4B1B6823F059
:10380C00F8027B685B69DB00394913430B603AE0D3
:10381C007B681B69002B20D0364B01221A60FCF709
:10382C00D5FE386108E0FCF7D1FE02463B69D31A9D
:10383C00022B01D90323A1E12D4B1B6803F00203DA
:10384C00002BF0D02A4B1B6823F0F8027B685B69D5
:10385C00DB00274913430B6015E0264B00221A604E
:10386C00FCF7B4FE386108E0FCF7B0FE02463B6999
:10387C00D31A022B01D9032380E11D4B1B6803F0E3
:10388C000203002BF0D17B681B6803F00803002BAC
:10389C003AD07B689B69002B19D0174B01221A6018
:1038AC00FCF794FE386108E0FCF790FE02463B6999
:1038BC00D31A022B01D9032360E10D4B5B6A03F091
:1038CC000203002BF0D0012000F0BAFA1CE00A4BE6
:1038DC0000221A60FCF77AFE38610FE0FCF776FEE6
:1038EC0002463B69D31A022B08D9032346E100BFD9
:1038FC00001002400000424280044242924B5B6A3C
:10390C0003F00203002BE9D17B681B6803F004036E
:10391C00002B00F0A6800023FB758B4BDB6903F0BA
:10392C008053002B0DD1884BDB69874A43F08053C1
:10393C00D361854BDB6903F08053BB60BB6801230B
:10394C00FB75824B1B6803F48073002B18D17F4BE3
:10395C001B687E4A43F480731360FCF737FE3861B2
:10396C0008E0FCF733FE02463B69D31A642B01D9FD
:10397C00032303E1754B1B6803F48073002BF0D019
:10398C007B68DB68012B06D16F4B1B6A6E4A43F0D8
:10399C00010313622DE07B68DB68002B0CD16A4BB2
:1039AC001B6A694A23F001031362674B1B6A664A60
:1039BC0023F0040313621CE07B68DB68052B0CD13D
:1039CC00614B1B6A604A43F0040313625E4B1B6A33
:1039DC005D4A43F0010313620BE05B4B1B6A5A4ACE
:1039EC0023F001031362584B1B6A574A23F004035C
:1039FC0013627B68DB68002B15D0FCF7E7FD3861A0
:103A0C000AE0FCF7E3FD02463B69D31A41F2883227
:103A1C00934201D90323B1E04B4B1B6A03F0020321
:103A2C00002BEED014E0FCF7D1FD38610AE0FCF776
:103A3C00CDFD02463B69D31A41F28832934201D93B
:103A4C0003239BE0404B1B6A03F00203002BEED1D7
:103A5C00FB7D012B05D13C4BDB693B4A23F08053AA
:103A6C00D3617B68DB69002B00F08780364B5B6889
:103A7C0003F00C03082B61D07B68DB69022B46D169
:103A8C00334B00221A60FCF7A1FD386108E0FCF70B
:103A9C009DFD02463B69D31A022B01D903236DE02D
:103AAC00294B1B6803F00073002BF0D17B681B6A59
:103ABC00B3F5803F08D1244B5B6823F400327B685C
:103ACC009B68214913434B601F4B5B6823F47412B2
:103ADC007B68196A7B685B6A0B431B4913434B6019
:103AEC001B4B01221A60FCF771FD386108E0FCF7F2
:103AFC006DFD02463B69D31A022B01D903233DE02D
:103B0C00114B1B6803F00073002BF0D035E0104B09
:103B1C0000221A60FCF75AFD386108E0FCF756FDEC
:103B2C0002463B69D31A022B01D9032326E0064B2C
:103B3C001B6803F00073002BF0D11EE07B68DB697F
:103B4C00012B07D1012319E0001002400070004046
:103B5C00600042420B4B5B68FB60FB6803F48032F5
:103B6C007B681B6A9A4206D1FB6803F470127B686F
:103B7C005B6A9A4201D0012300E0002318461837F3
:103B8C00BD4680BD0010024080B584B000AF7860A7
:103B9C0039607B68002B01D10123D0E06A4B1B6894
:103BAC0003F007033A689A4210D9674B1B6823F05D
:103BBC00070265493B6813430B60634B1B6803F0BA
:103BCC0007033A689A4201D00123B8E07B681B686E
:103BDC0003F00203002B20D07B681B6803F0040366
:103BEC00002B05D0594B5B68584A43F4E063536093
:103BFC007B681B6803F00803002B05D0534B5B68F4
:103C0C00524A43F460535360504B5B6823F0F0020C
:103C1C007B689B684D4913434B607B681B6803F0C2
:103C2C000103002B40D07B685B68012B07D1474B0D
:103C3C001B6803F40033002B15D101237FE07B6854
:103C4C005B68022B07D1414B1B6803F00073002B00
:103C5C0009D1012373E03D4B1B6803F00203002BD9
:103C6C0001D101236BE0394B5B6823F003027B68C5
:103C7C005B68364913434B60FCF7A8FCF8600AE01C
:103C8C00FCF7A4FC0246FB68D31A41F2883293423B
:103C9C0001D9032353E02D4B5B6803F00C027B68C6
:103CAC005B689B009A42EBD1274B1B6803F0070320
:103CBC003A689A4210D2244B1B6823F0070222491F
:103CCC003B6813430B60204B1B6803F007033A68F7
:103CDC009A4201D0012332E07B681B6803F0040395
:103CEC00002B08D0194B5B6823F4E0627B68DB681F
:103CFC00164913434B607B681B6803F00803002BC9
:103D0C0009D0124B5B6823F460527B681B69DB00A3
:103D1C000E4913434B6000F021F802460B4B5B68D5
:103D2C001B0903F00F030A49CB5C22FA03F3094A7F
:103D3C001360094B1B681846FCF706FC0023184659
:103D4C001037BD4680BD00BF00200240001002406D
:103D5C0044480008040000200800002080B487B00C
:103D6C0000AF0023FB600023BB6000237B610023BA
:103D7C007B6000233B611E4B5B68FB60FB6803F0C0
:103D8C000C03042B02D0082B03D027E0194B3B610A
:103D9C0027E0FB689B0C03F00F03174AD35C7B6096
:103DAC00FB6803F48033002B10D0114B5B685B0C69
:103DBC0003F00103114AD35CBB607B680D4A03FB23
:103DCC0002F2BB68B2FBF3F37B6104E07B680C4A44
:103DDC0002FB03F37B617B693B6102E0054B3B61BA
:103DEC0000BF3B6918461C37BD4680BC704700BFFE
:103DFC000010024000127A005C4800086C48000871
:103E0C0000093D0080B400AF024B1B681846BD464C
:103E1C0080BC70470400002080B500AFFFF7F2FFB4
:103E2C000246054B5B681B0A03F007030349CB5C96
:103E3C0022FA03F3184680BD0010024054480008D3
:103E4C0080B485B000AF78600A4B1B680A4AA2FBAD
:103E5C0003235B0A7A6802FB03F3FB6000BFFB6879
:103E6C005A1EFA60002BF9D100BF00BF1437BD46B3
:103E7C0080BC704704000020D34D621080B582B026
:103E8C0000AF03460A46FB711346BB71BB7903F0C6
:103E9C000103002B14D0FB795A4A342101FB03F3A4
:103EAC00134404331868FB79564A342101FB03F39D
:103EBC00134408331B8801221946FCF7C5FE13E096
:103ECC00FB79504A342101FB03F313440433186883
:103EDC00FB794C4A342101FB03F3134408331B8850
:103EEC0000221946FCF7B0FEBB7903F00203002B4D
:103EFC0014D0FB79434A342101FB03F313440C33F4
:103F0C001868FB793F4A342101FB03F31344103347
:103F1C001B8801221946FCF797FE13E0FB79394AFE
:103F2C00342101FB03F313440C331868FB79354A35
:103F3C00342101FB03F3134410331B880022194670
:103F4C00FCF782FEBB7903F00403002B14D0FB7941
:103F5C002C4A342101FB03F3134414331868FB7906
:103F6C00284A342101FB03F3134418331B88012224
:103F7C001946FCF769FE13E0FB79224A342101FB58
:103F8C0003F3134414331868FB791E4A342101FBE4
:103F9C0003F3134418331B8800221946FCF754FE14
:103FAC00BB7903F00803002B14D0FB79154A34219C
:103FBC0001FB03F313441C331868FB79114A3421B9
:103FCC0001FB03F3134420331B8801221946FCF731
:103FDC003BFE13E0FB790B4A342101FB03F3134442
:103FEC001C331868FB79074A342101FB03F3134493
:103FFC0020331B8800221946FCF726FE00BF083729
:10400C00BD4680BD7048000880B588B000AF03463F
:10401C000A46FB711346BB71FB79574A342101FBED
:10402C0003F313442C331868FB79534A342101FBF6
:10403C0003F3134430331B8800221946FCF704FEAB
:10404C00BA79FB7911461846FFF718FFFB794A4AF3
:10405C00342101FB03F3134424331868FB79464ADB
:10406C00342101FB03F3134428331B880022194627
:10407C00FCF7EAFD414B9B68FB61414B1B68414AD5
:10408C00A2FB03239A0C13469B001A443C4B1B685F
:10409C003C49A1FB03139B0C5B08D31ABB61374B48
:1040AC009B68FA69D31ABA699A42F8D8FB79324AF2
:1040BC00342101FB03F3134424331868FB792E4A93
:1040CC00342101FB03F3134428331B8801221946C6
:1040DC00FCF7BAFD294B9B687B61294B1B68294A6D
:1040EC00A2FB03239A0C13469B001A44244B1B6817
:1040FC002449A1FB03139B0C5B08D31A3B611F4B98
:10410C009B687A69D31A3A699A42F8D8FB791A4AA9
:10411C00342101FB03F3134424331868FB79164A4A
:10412C00342101FB03F3134428331B880022194666
:10413C00FCF78AFD114B9B68FB60114B1B68114A05
:10414C00A2FB03239B0C642203FB02F20C4B1B68A7
:10415C000C49A1FB03139B0C5B08D31ABB60074BE8
:10416C009B68FA68D31ABA689A42F8D800BF00BFA5
:10417C002037BD4680BD00BF7048000810E000E04D
:10418C000400002083DE1B4380B586B000AF0346DD
:10419C00FB71FB7900211846FFF736FFFB790121F3
:1041AC001846FFF731FF00237B611FE0134B9B6820
:1041BC003B61134B1B68134AA2FB03239B0C4FF46C
:1041CC007A7203FB02F20E4B1B680E49A1FB031320
:1041DC009B0C5B08D31AFB60084B9B683A69D31A9B
:1041EC00FA689A42F8D87B6901337B617B69012BB1
:1041FC00DCD900BF00BF1837BD4680BD10E000E021
:10420C000400002083DE1B4380B584B000AF03465E
:10421C00FB710B46BB7113467B71BB79012B15D11E
:10422C007B797F33FB73FB7B1B09BB73FB7B03F03D
:10423C000F037B73BA7BFB7911461846FFF7E4FE3C
:10424C007A7BFB7911461846FFF7DEFEBB79022B11
:10425C0015D17B79413BFB73FB7B1B09BB73FB7B50
:10426C0003F00F037B73BA7BFB7911461846FFF7FB
:10427C00CBFE7A7BFB7911461846FFF7C5FE00BFD3
:10428C001037BD4680BD000080B58EB000AF034630
:10429C00FB7100BFFCF79AF90346312BFAD9FB7975
:1042AC007C4A342101FB03F313442C331868FB794B
:1042BC00784A342101FB03F3134430331B8800226A
:1042CC001946FCF7C1FCFB79724A342101FB03F35C
:1042DC00134424331868FB796E4A342101FB03F331
:1042EC00134428331B8800221946FCF7ADFCFB79DC
:1042FC0000211846FFF7C2FD00237B631FE0664BCD
:10430C009B683B61654B1B68654AA2FB03239B0CB6
:10431C004FF47A7203FB02F2604B1B686049A1FBFD
:10432C0003139B0C5B08D31AFB605B4B9B683A69CD
:10433C00D31AFA689A42F8D87B6B01337B637B6B98
:10434C00952BDCD9FB7903211846FFF75DFE002382
:10435C003B631FE0504B9B68BB61504B1B68504A42
:10436C00A2FB03239B0C4FF47A7203FB02F24B4B20
:10437C001B684B49A1FB03139B0C5B08D31A7B6195
:10438C00454B9B68BA69D31A7A699A42F8D83B6B49
:10439C0001333B633B6B042BDCD9FB7903211846BF
:1043AC00FFF732FE0023FB621FE03B4B9B683B6236
:1043BC003A4B1B683A4AA2FB03239B0C4FF47A72CC
:1043CC0003FB02F2354B1B683549A1FB03139B0C15
:1043DC005B08D31AFB61304B9B683A6AD31AFA69B3
:1043EC009A42F8D8FB6A0133FB62FB6A042BDCD9D6
:1043FC00FB7903211846FFF707FE274B9B68BB622E
:10440C00264B1B68264AA2FB03239B0C962203FB1C
:10441C0002F2224B1B682249A1FB03139B0C5B0885
:10442C00D31A7B621C4B9B68BA6AD31A7A6A9A427B
:10443C00F8D8FB7902211846FFF7E6FDFB7902213B
:10444C001846FFF7E1FDFB7908211846FFF7DCFD64
:10445C00FB7900211846FFF7D7FDFB790C21184694
:10446C00FFF7D2FDFB7900211846FFF7CDFDFB7954
:10447C0006211846FFF7C8FDFB7900211846FFF707
:10448C00C3FDFB7901211846FFF7BEFD00BF38378D
:10449C00BD4680BD7048000810E000E0040000201C
:1044AC0083DE1B4380B590B000AF03460A46FB7118
:1044BC001346BB71BB7903F00F0387F83F30BB7910
:1044CC0023F00F0387F83E30FB79A44A342101FB1B
:1044DC0003F313442C331868FB79A04A342101FBF5
:1044EC0003F3134430331B8801221946FCF7ACFB51
:1044FC0097F83E301B09DAB2FB7911461846FFF7E4
:10450C00BDFCFB79954A342101FB03F3134424339E
:10451C001868FB79914A342101FB03F313442833C7
:10452C001B8800221946FCF78FFB8D4B9B68BB63E5
:10453C008C4B1B688C4AA2FB03239A0C13469B00E2
:10454C001A44884B1B688849A1FB03139B0C5B081E
:10455C00D31A7B63824B9B68BA6BD31A7A6B9A42E1
:10456C00F8D8FB797D4A342101FB03F3134424333F
:10457C001868FB79794A342101FB03F3134428337F
:10458C001B8801221946FCF75FFB754B9B683B634C
:10459C00744B1B68744AA2FB03239A0C13469B00B2
:1045AC001A44704B1B687049A1FB03139B0C5B08EE
:1045BC00D31AFB626A4B9B683A6BD31AFA6A9A421B
:1045CC00F8D8FB79654A342101FB03F313442433F7
:1045DC001868FB79614A342101FB03F31344283337
:1045EC001B8800221946FCF72FFB5D4B9B68BB62B6
:1045FC005C4B1B685C4AA2FB03239B0C642203FBF1
:10460C0002F2584B1B685849A1FB03139B0C5B0827
:10461C00D31A7B62524B9B68BA6AD31A7A6A9A4253
:10462C00F8D897F83F20FB7911461846FFF726FC7F
:10463C00FB794A4A342101FB03F3134424331868F1
:10464C00FB79464A342101FB03F3134428331B88BE
:10465C0000221946FCF7F8FA414B9B683B62414B30
:10466C001B68414AA2FB03239A0C13469B001A4475
:10467C003C4B1B683C49A1FB03139B0C5B08D31AF6
:10468C00FB61374B9B683A6AD31AFA699A42F8D89D
:10469C00FB79324A342101FB03F3134424331868A9
:1046AC00FB792E4A342101FB03F3134428331B8876
:1046BC0001221946FCF7C8FA294B9B68BB61294BB0
:1046CC001B68294AA2FB03239A0C13469B001A442D
:1046DC00244B1B682449A1FB03139B0C5B08D31AC6
:1046EC007B611F4B9B68BA69D31A7A699A42F8D8D6
:1046FC00FB791A4A342101FB03F313442433186861
:10470C00FB79164A342101FB03F3134428331B882D
:10471C0000221946FCF798FA114B9B683B61114B30
:10472C001B68114AA2FB03239B0C642203FB02F2BD
:10473C000C4B1B680C49A1FB03139B0C5B08D31A95
:10474C00FB60074B9B683A69D31AFA689A42F8D80F
:10475C0000BF00BF4037BD4680BD00BF7048000899
:10476C0010E000E00400002083DE1B4380B584B021
:10477C0000AF03463960FB710023FB600BE0FB6864
:10478C003A6813441A78FB7911461846FFF78AFEEB
:10479C00FB680133FB60FB683A6813441B78002B01
:1047AC00EDD100BF00BF1037BD4680BD03460244AB
:1047BC00934200D1704703F8011BF9E770B500264E
:1047CC000C4D0D4C641BA410A64209D100F01AF834
:1047DC0000260A4D0A4C641BA410A64205D170BDDC
:1047EC0055F8043B98470136EEE755F8043B9847DB
:1047FC000136F2E7A4480008A4480008A4480008C1
:10480C00A8480008F8B500BFF8BC08BC9E46704725
:0C481C00F8B500BFF8BC08BC9E46704711
:10482800202044656570426C7565000053544D3313
:104838003220436F757273650000000000000000AD
:104848000000000001020304060708090000000038
:104858000102030402030405060708090A0B0C0DEC
:104868000E0F1010010200000000000000080140B7
:104878000400000000080140080000000008014092
:10488800100000000008014020000000000801405E
:0C4898004000000000080140800000000B
:0448A40031010008D6
:0448A8000D010008F6
:1048AC00010000000024F4001000000001000000D2
:04000005080004DD0E
:00000001FF
