S00F0000445331384232302E7372656371
S11300000C9434000C9446000C9446000C94460066
S11300100C9446000C9446000C9446000C94460044
S11300200C9446000C9446000C9446000C94460034
S11300300C9446000C9446000C9446000C94460024
S11300400C9446000C9446000C9446000C94460014
S11300500C9446000C9446000C9446000C94460004
S11300600C9446000C94460011241FBECFEFD8E038
S1130070DEBFCDBF21E0A0E0B1E001C01D92A03001
S1130080B207E1F70E94FE000C942B010C940000CF
S11300909FB7F89484B1816084B9E3E9F7E03197BC
S11300A0F1F700C0000084B18E7F84B9F0EAFA95BC
S11300B0F1F7189B02C081E001C080E09FBFEFE828
S11300C0F6E03197F1F700C0000008952FB7F894D7
S11300D094B1916094B99AE09A95F1F700C088239D
S11300E019F084B18E7F84B983E091E00197F1F730
S11300F000C0000084B18E7F84B92FBF0895CF93D0
S1130100DF93D82FC0E017C081E090E00C2E02C02E
S1130110880F991F0A94E2F72D2F30E02823392302
S11301208217930721F481E00E94660003C080E0F7
S11301300E946600CF5FC83038F3DF91CF910895F5
S11301409FB7F89484B1816084B92AE02A95F1F7C5
S113015000C084B18E7F84B985E48A95F1F70000EC
S113016083B1817020EF2A95F1F79FBF0895CF9353
S1130170DF93C0E0D0E00BC00E94A00090E00C2E02
S113018002C0880F991F0A94E2F7D82BCF5FC830BA
S113019098F38D2FDF91CF910895CF930E9448005B
S11301A0813009F58CEC0E947F0084E40E947F007A
S11301B02FEF8EE994E2215080409040E1F700C097
S11301C000000E9448008CEC0E947F008EEB0E948D
S11301D07F000E94B700C82F0E94B70090E0982FBC
S11301E088278C2B02C080E090E0CF9108951BB843
S11301F08CEF8AB915B88EEF84B908950E9418015E
S11302000E94F7000E94CD00D82FC92F892F90E0BB
S11302100E9424018D2F9C2F0E9424012FEF89E638
S113022098E1215080409040E1F700C00000EACFFF
S11302301092C50087E68093C40086E08093C200D4
S113024088E18093C10008959091C00095FFFCCF90
S10D02508093C6000895F894FFCFD0
S9030000FC
