S01500005374617469635F494E445F56322E7372656386
S11300000C9434000C9451000C9451000C94510045
S11300100C9451000C9451000C9451000C94510018
S11300200C9451000C9451000C9451000C94510008
S11300300C9451000C9451000C9451000C945100F8
S11300400C9451000C9451000C9451000C945100E8
S11300500C9451000C9451000C9451000C945100D8
S11300600C9451000C94510011241FBECFEFD8E022
S1130070DEBFCDBF11E0A0E0B1E0E0E0F4E002C0FB
S113008005900D92A030B107D9F721E0A0E0B1E0CE
S113009001C01D92A030B207E1F70E94AA010C949E
S11300A0FE010C9400008230C9F1833009F469C068
S11300B0813009F098C041110DC034B181E090E065
S11300C0062E02C0880F991F0A94E2F780958323B5
S11300D084B90BC034B181E090E0062E02C0880FD1
S11300E0991F0A94E2F7832B84B9222359F025B18E
S11300F081E090E002C0880F991F6A95E2F7822B95
S113010085B9089525B181E090E002C0880F991F58
S11301106A95E2F78095822385B9089541110DC04F
S113012037B181E090E0062E02C0880F991F0A942F
S1130130E2F78095832387B90BC037B181E090E063
S1130140062E02C0880F991F0A94E2F7832B87B901
S1130150222359F028B181E090E002C0880F991F52
S11301606A95E2F7822B88B9089528B181E090E07E
S113017002C0880F991F6A95E2F78095822388B997
S1130180089541110DC03AB181E090E0062E02C0FD
S1130190880F991F0A94E2F7809583238AB90BC0CC
S11301A03AB181E090E0062E02C0880F991F0A94AC
S11301B0E2F7832B8AB9222359F02BB181E090E036
S11301C002C0880F991F6A95E2F7822B8BB90895B4
S11301D02BB181E090E002C0880F991F6A95E2F785
S11301E0809582238BB908958230F1F08330A9F190
S11301F0813009F04AC0442351F025B181E090E0F8
S113020002C0880F991F6A95E2F7822B0BC095B143
S113021021E030E002C0220F331F6A95E2F7822FFB
S11302208095892385B90895442351F028B181E04C
S113023090E002C0880F991F6A95E2F7822B0BC0E9
S113024098B121E030E002C0220F331F6A95E2F733
S1130250822F8095892388B90895442351F02BB1C6
S113026081E090E002C0880F991F6A95E2F7822B23
S11302700BC09BB121E030E002C0220F331F6A950E
S1130280E2F7822F809589238BB90895CF93DF936A
S1130290EB0140E0688188850E94F40040E06981B8
S11302A089850E94F40040E06A818A850E94F400F6
S11302B040E06B818B850E94F40040E06C818C856A
S11302C00E94F40040E06D818D850E94F40041E0BD
S11302D06E818E850E94F40041E06F818F850E94BB
S11302E0F400DF91CF910895CF93DF93EC0121E0E7
S11302F041E0688188850E94530021E041E06981E2
S113030089850E94530021E041E06A818A850E9428
S1130310530021E041E06B818B850E94530021E072
S113032041E06C818C850E94530021E041E06D81A5
S11303308D850E94530021E041E06E818E850E94EC
S1130340530021E041E06F818F850E945300DF91CB
S1130350CF910895CF93DF93CDB7DEB7A0970FB6B3
S1130360F894DEBF0FBECDBF1982FF24F394FA8246
S113037002E00B8313E01C836894BB24B2F8BD82B3
S11303800F2EF5E0CF2EF02DCE820F2EF6E0DF2ECD
S1130390F02DDF820F2EF7E0EF2EF02DE88619877F
S11303A01A871B871C871D871E871F87188BCE0102
S11303B001960E947401BE016F5F7F4F80E090E060
S11303C00E944601B98ACA8ADB8AEC8A1D8AFE8A9F
S11303D00F8B188FF98EFA8EFB8EFC8E0D8F0E8F7D
S11303E00F8F08A3CE0141960E947401BE016F5E77
S11303F07F4F80E090E00E944601FFCFF894FFCF4A
S9030000FC
